:100000000C948F010C94C0010C94C0010C94C0019D
:100010000C94C0010C94C0010C94C0010C94C0015C
:100020000C94C0010C94C0010C94C0010C94C0014C
:100030000C94C0010C94C0010C94C0010C94C0013C
:100040000C94C0010C94C0010C94C0010C94C0012C
:100050000C94C0010C94C0010C94C0010C94DE08F7
:100060000C94C0010C9452090C9428090C94C00102
:100070000C94C0010C94C0010C94C0010C94C001FC
:100080000C94C0010C94C0010C94C0010C94C001EC
:100090000C94C0010C94C0010C94C0010C94F406A3
:1000A0000C94C0010C94C0010C94C0010C94C001CC
:1000B0000C94C0010C94C0010C94C0010C94C001BC
:1000C0000C94C0010C94C0010C94C0010C94C001AC
:1000D0000C94C0010C94C0010C94C0010C94C0019C
:1000E0000C94C0015508580847084B084F088F0862
:1000F0005C08600866086A086E08740878087C085E
:100100008F08820886088A08650A6A0A6F0A790ACF
:10011000830AFC0A8D0A950A9D0AA70AB10ABB0A3E
:10012000CA0AD40AFC0ADE0AE80AF20A0C946A082F
:100130000C9447080C94D40A0C94A70A0C946008F9
:100140000C94790A0C94950A0C947E030C948D0AF5
:100150000C94830A0C9492030C94A4020C949402C1
:100160000C9492020C9466080C946E080C94E80AA5
:100170000C9482080C94B10A0C94BB0A0C949D0A4E
:100180000C948F080C946A0A0C946F030C944F081B
:100190000C94B3050C940E0B0C9488040C948A08F0
:1001A0000C9455080C9486080C946F0A0C947408EF
:1001B0000C946E050C94C0020C9478080C944B08B7
:1001C0000C94650A0C94D8030C9425040C94ED024D
:1001D0000C9495020C9441030C94A0030C946C03B2
:1001E0000C948A040C947C080C94080B0C94CA0A96
:1001F0000C94DE0A0C94B8020C9458080C945C0819
:100200000C94F20A0C9487040C94FC0A0C94880950
:100210000C94930200000A0B02090C0D0E08070350
:1002200004010000000000000000000000000000C9
:1002300000000000000000000000000000000000BE
:10024000121110000000000000000000000000007B
:100250000000000000000000000000002200250057
:1002600028002B002E00310034000201000005019F
:1002700008010B0100002100240027002A002D00A6
:100280003000330001010000040107010A010102EE
:100290001020200808102040102040800201020198
:1002A0000804020101020408102040808040201050
:1002B00008040201800402018040201008040201A9
:1002C0000804020101020408102040800102040811
:1002D00010204080050505050705080808080202EA
:1002E00002020A0A080804040404010101010101D0
:1002F00001010303030303030303040707070C0CB3
:100300000C0C0C0C0C0C0202020206060606060679
:1003100006060B0B0B0B0B0B0B0B0E0B080B112418
:100320001FBECFEFD1E2DEBFCDBF00E00CBF12E0B9
:10033000A0E0B2E0E6ECF0E200E00BBF02C0079004
:100340000D92AA39B107D9F724E0AAE9B2E001C0B9
:100350001D92AF3FB207E1F711E0CEE8D1E000E037
:1003600006C021970109802FFE010E94190ECD3889
:10037000D10780E00807A9F70E9489090C94511061
:100380000C940000282F3091F103313208F04AC05C
:100390008091F0038111FCCF9091470342E040939C
:1003A000F0032093EF032FEF2093250310922403F3
:1003B00030932303E7E2F3E0A3E0B3E020E0321759
:1003C00021F041914D932F5FFACF109202032091BB
:1003D0000203990F922B909302039091EE039130B8
:1003E00061F41092EE03909102039093BB00909100
:1003F000BC0093FDF8CF95EC01C095EE9093BC0046
:100400009091F0039230E1F3909125039F3F79F0B2
:1004100080912503803241F080912503803331F0B3
:1004200084E005C081E003C082E001C083E0109257
:10043000F2031092F1031092260308959091F003B5
:100440009111FCCF91E09093F0039093EF032FEF85
:100450002093250310922403260F209323039093C7
:10046000020390910203880F892B809302038091ED
:10047000EE03813061F41092EE03809102038093C9
:10048000BB008091BC0083FDF8CF85EC01C085EEF8
:100490008093BC008091F0038130E1F380912403CC
:1004A000861710F460912403A3E0B3E0E2EEF2E0DB
:1004B00080E0861721F09D9191938F5FFACF089588
:1004C00085ED8093BC008091BC0084FDFCCF109230
:1004D000F00308954091BF02262F30E0240F311D14
:1004E00021323105DCF42091F0032430C9F4FC0101
:1004F00080E090E0861758F43091BF022191DC0132
:10050000A156BD4FA30FB11D2C930196F3CF80913F
:10051000BF02680F6093BF0280E0089581E00895F4
:1005200082E00895089508950895E091F40380917C
:10053000F303E81730F4F0E0EE51FD4F808190E0D6
:1005400008958FEF9FEF08959091F4038091F30346
:10055000981750F4E92FF0E0EE51FD4F208130E084
:100560009F5F9093F40302C02FEF3FEFC9010895FE
:100570008091F30390E02091F403821B9109089588
:10058000CF92DF92EF92FF920F931F93CF93DF935F
:100590007C01CB018A0120912603222389F0EB0103
:1005A0006B01C40ED51ECC15DD0569F06991D7012C
:1005B000ED91FC910190F081E02DC7011995F3CFE9
:1005C000642F0E946A02C801DF91CF911F910F91A1
:1005D000FF90EF90DF90CF900895CF93DF931F921D
:1005E000CDB7DEB76983209126032223D1F0209175
:1005F000F103203240F021E030E0FC01338322831C
:1006000080E090E015C08091F203E82FF0E0E95D12
:10061000FC4F998190838F5F8093F2038093F10365
:1006200005C061E0CE0101960E946A0281E090E07F
:100630000F90DF91CF9108953FB7F89480919B027E
:1006400090919C02A0919D02B0919E0226B5A89B1C
:1006500005C02F3F19F00196A11DB11D3FBFBA2F54
:10066000A92F982F8827820F911DA11DB11DBC01B4
:10067000CD0142E0660F771F881F991F4A95D1F779
:100680000895CF92DF92EF92FF920F931F93CF9333
:10069000DF936C017A018B01C0E0D0E0CE15DF055D
:1006A00081F0D8016D918D01D601ED91FC91019001
:1006B000F081E02DC6011995892B11F02196EECF1E
:1006C0007E01C701DF91CF911F910F91FF90EF90B5
:1006D000DF90CF900895089580E090E00895FC01A8
:1006E000538D448D252F30E0842F90E0821B930B97
:1006F000541710F0CF96089501970895FC01918D3D
:10070000828D981761F0828DDF01A80FB11D5D9673
:100710008C91928D9F5F9F73928F90E008958FEFE1
:100720009FEF0895FC01918D828D981731F0828D95
:10073000E80FF11D858D90E008958FEF9FEF0895EC
:10074000FC01918D228D892F90E0805C9F4F821B50
:1007500091098F739927089588E493E00E94A0037C
:1007600021E0892B09F420E0822F0895FC01848D7B
:10077000DF01A80FB11DA35ABF4F2C91848D90E0CB
:1007800001968F739927848FA689B7892C93A089A6
:10079000B1898C91837080648C93938D848D981330
:1007A00006C00288F389E02D80818F7D80830895C3
:1007B000EF92FF920F931F93CF93DF93EC0181E0B1
:1007C000888F9B8D8C8D981305C0E889F98980816D
:1007D00085FD26C0F62E0B8D10E00F5F1F4F0F73A7
:1007E0001127E02E8C8DE8120CC00FB607FCFACF53
:1007F000E889F989808185FFF5CFCE010E94B60393
:10080000F1CF8B8DFE01E80FF11DE35AFF4FF0820F
:100810009FB7F8940B8FEA89FB89808180620AC0B8
:100820009FB7F894EE89FF896083E889F989808110
:100830008370806480839FBF81E090E0DF91CF91DF
:100840001F910F91FF90EF900895CF93DF93EC01EC
:10085000888D8823C9F0EA89FB89808185FD05C0E0
:10086000A889B9898C9186FD0FC00FB607FCF5CF1A
:10087000808185FFF2CFA889B9898C9185FFEDCF62
:10088000CE010E94B603E7CFDF91CF91089580E0BB
:1008900090E0892B21F00E94AC03811125C080E0FB
:1008A00090E0892B41F080E090E0892B21F00E94BC
:1008B000000081111CC080E090E0892B41F080E0B5
:1008C00090E0892B21F00E940000811113C080E08C
:1008D00090E0892BA1F080E090E0892B81F00E94CC
:1008E000000081110AC008950E940000D8CF0E9424
:1008F0000000E1CF0E940000EACF0C9400000895B0
:100900008EBD00000DB407FEFDCF8EB5089508958D
:100910000E943D108F929F92AF92BF92CF92DF9232
:10092000EF92FF920F931F93CF93DF93CDB7DEB774
:1009300062970FB6F894DEBF0FBECDBF6C018B017E
:1009400084E2DB011D928A95E9F784E290E0A0E061
:10095000B0E0FB0180839183A283B383F60186819B
:100960009781A085B185FB0184839583A683B78396
:1009700083E090E0A0E0B0E080879187A287B38712
:100980002FB7F8948091E5039091E603A091E703D7
:10099000B091E8032FBF808B918BA28BB38BFE01AC
:1009A00031968CE0DF011D928A95E9F77E01BDE06A
:1009B000EB0EF11C86E0F70111928A95E9F7D6015A
:1009C00013968C91139791E090932603809347039D
:1009D0001092F2031092F10314968D919C91159749
:1009E000DC01ED91FC910190F081E02D6AE1199517
:1009F00081E00E94C20166E0F60183810E941E022E
:100A00001092F4038093F3035E01F3E1AF0EB11C87
:100A1000D60114968D919C911597DC01ED91FC9176
:100A20000284F385E02D1995F70181937F01EA1582
:100A3000FB0571F76D857E85072E000C880B990BE1
:100A40000E94230E20E030E040E85DE30E945E0E4D
:100A50004B015C016F857889072E000C880B990B80
:100A60000E94230E20E030E040E85DE30E945E0E2D
:100A70006B017C0169897A89072E000C880B990B20
:100A80000E94230E20E030E040E85DE30E945E0E0D
:100A9000D80154968D929D92AD92BC925797F801D1
:100AA000C08ED18EE28EF38E5C966D937D938D9386
:100AB0009C935F9781E062960FB6F894DEBF0FBEFD
:100AC000CDBFDF91CF911F910F91FF90EF90DF90FD
:100AD000CF90BF90AF909F908F9008950F931F93EA
:100AE000CF93DF938C01EB0188E2FB0111928A9591
:100AF000E9F74BE050E062E972E0CE010E9442105B
:100B00001B8681E090E0A0E0B0E08C879D87AE87F7
:100B1000BF87F80186819781A085B185888B998BE5
:100B2000AA8BBB8B83E090E0A0E0B0E08C8B9D8B28
:100B3000AE8BBF8B1CA21DA21EA21FA2188E198EE7
:100B40001A8E1B8E1C8E1D8E1E8E1F8E8AE097EDB8
:100B5000A3E2BCE388A399A3AAA3BBA3DF91CF918F
:100B60001F910F9108950C94B40FCF92DF92EF92E2
:100B7000FF920F931F93CF93DF93C0E010E0D0E07C
:100B80008FE5E82EF12C80E00E9480042C2F30E0CD
:100B9000382B2F3A91EC390721F481E0809314042B
:100BA00015C02E3A314C19F4109214040FC0D430F1
:100BB00038F0143040F4F7013197F1F71F5FD0E0BF
:100BC000DF5FC82FE0CF8FEF9FEF54C080911404F8
:100BD000C0910E04D0910F04882361F18E010C5F47
:100BE0001F4F80E00E94800489930C171D07C9F7EE
:100BF000E0910E04F0910F04808180931204F18043
:100C0000F0921304C280D380EE2ECE2FDF2F00E0AF
:100C100010E08C2F8E198F1538F480E00E9480042C
:100C20008993080F111DF5CFC016D10609F580E094
:100C300090E020C080E00E948004888380E00E94D1
:100C400080048983E0910E04F0910F0480818093E9
:100C500012041181109313040E2FCE2FDF2F8C2F2F
:100C6000801B811720F780E00E9480048993F7CFD2
:100C70008DEF9FEFDF91CF911F910F91FF90EF903C
:100C8000DF90CF9008950F931F93CF93DF93E09160
:100C90000E04F0910F048EEA8083E0910E04F0912F
:100CA0000F0481EC8183E0910E04F0910F04809198
:100CB00012048283E0910E04F0910F0480911304DA
:100CC0008383109113041C5F00910E04C02F809148
:100CD0000F04D82F8C2F801B811720F489910E943C
:100CE0008004F8CF812F90E0DF91CF911F910F9179
:100CF000089590E0FC01E257FD4F2491FC01EC5275
:100D0000FD4F8491882399F090E0880F991FFC0192
:100D1000EC58FD4FA591B491FC01E65AFD4F859129
:100D200094918FB7F894EC91E22BEC938FBF0895D8
:100D30001F93CF93DF93162FC5E1D4E09FA521E049
:100D400020932603909347031092F2031092F1032D
:100D5000A8A9B9A9ED91FC9111970190F081E02D1E
:100D6000682FCD01199588A999A9DC01ED91FC9115
:100D70000190F081E02D612F199581E00E94C20160
:100D800081E0DF91CF911F910895CF93DF93C5E16B
:100D9000D4E08FA591E090932603809347031092AF
:100DA000F2031092F10388A999A9DC01ED91FC915D
:100DB0000190F081E02D60E0199581E00E94C20170
:100DC00061E08FA50E941E021092F4038093F3034A
:100DD00088A999A9DC01ED91FC910284F385E02DAD
:100DE0001995DF91CF9108951F920F920FB60F9230
:100DF00011240BB60F922F933F934F935F936F93F2
:100E00007F938F939F93AF93BF93EF93FF938091C3
:100E1000B900887F803609F49CC068F5883209F4EF
:100E20005BC090F4803109F454C038F4882309F48D
:100E3000F6C0883009F44DC0F6C0883109F44CC0C2
:100E4000803209F45DC0EFC0803409F468C048F412
:100E5000803309F455C0883309F0E5C08093250339
:100E6000D8C0803509F44FC0883509F45DC0883496
:100E700009F0D9C0D6C0883909F4C7C0A8F48837AA
:100E800009F467C038F4883609F463C0803709F480
:100E900060C0C9C0883809F4B8C0803909F45FC09F
:100EA000803809F0C0C05BC0803B09F486C038F4CC
:100EB000803A09F466C0883A09F47FC0B4C0803C27
:100EC00009F4A7C0883C09F4A4C0883B09F48AC08F
:100ED000AAC08091020310C0909124038091230343
:100EE000981770F5E091240381E08E0F809324031E
:100EF000F0E0ED5FFC4F80818093BB0085EC86C005
:100F0000809325038EC0E091240381E08E0F8093AF
:100F100024038091BB00F0E0ED5FFC4F8083909153
:100F20002403809123036EC0E091240381E08E0F9F
:100F3000809324038091BB00F0E0ED5FFC4F808341
:100F40008091EF0381116DC081E08093EE0384EA0C
:100F500061C083E08093F0031092E102CFCF8091D3
:100F6000E102803208F051C0E091E10281E08E0F91
:100F70008093E1028091BB00F0E0EF53FD4F80834E
:100F8000BDCF85EC8093BC001092F0038091E1020C
:100F9000803230F4E091E102F0E0EF53FD4F108237
:100FA0006091E10270E0E091EA03F091EB0381ECE3
:100FB00092E019951092E10236C084E08093F0032C
:100FC0001092C0021092BF02E091EC03F091ED0389
:100FD00019958091BF02811105C081E08093BF0205
:100FE00010929F02E091C00281E08E0F8093C002B8
:100FF000F0E0E156FD4F80818093BB009091C002EC
:101000008091BF02981708F479CF85E88093BC00DF
:101010000AC085EC8093BC001092F00304C01092CB
:1010200025030E946002FF91EF91BF91AF919F91C4
:101030008F917F916F915F914F913F912F910F9081
:101040000BBE0F900FBE0F901F901895362F90E09B
:10105000FC01EC5EFD4F4491FC01E257FD4F2491F1
:10106000FC01EC52FD4F9491992309F46CC0442388
:1010700009F455C050E0FA013197E231F10508F06A
:101080004EC08827EE58FF4F8F4F0C94190E809159
:1010900080008F7707C0809180008F7D03C0809192
:1010A0008000877F809380003AC084B58F7702C02C
:1010B00084B58F7D84BD33C08091B0008F7703C02D
:1010C0008091B0008F7D8093B00029C08091900006
:1010D0008F7707C0809190008F7D03C08091900032
:1010E000877F809390001BC08091A0008F7707C0FE
:1010F0008091A0008F7D03C08091A000877F8093A6
:10110000A0000DC0809120018F7707C08091200141
:101110008F7D03C080912001877F80932001E92F7C
:10112000F0E0EE0FFF1FE65AFD4FA591B4919FB777
:10113000F894311104C08C912095282302C0EC91C1
:101140002E2B2C939FBF08958F929F92AF92BF92A8
:10115000CF92DF92EF92FF926B017C010E941C0301
:101160004B015C01C114D104E104F104F1F00E94CF
:101170001C03DC01CB0188199909AA09BB09883E27
:101180009340A105B10570F321E0C21AD108E1082E
:10119000F10888EE880E83E0981EA11CB11CC114D2
:1011A000D104E104F10419F7DDCFFF90EF90DF9057
:1011B000CF90BF90AF909F908F9008951F920F9205
:1011C0000FB60F9211242F933F938F939F93AF935A
:1011D000BF938091E5039091E603A091E703B0915E
:1011E000E80330919A0223E0230F2D3720F4019673
:1011F000A11DB11D05C026E8230F0296A11DB11D3A
:1012000020939A028093E5039093E603A093E7036B
:10121000B093E80380919B0290919C02A0919D0263
:10122000B0919E020196A11DB11D80939B029093E7
:101230009C02A0939D02B0939E02BF91AF919F919B
:101240008F913F912F910F900FBE0F901F90189587
:101250001F920F920FB60F9211240BB60F922F937D
:101260003F934F935F936F937F938F939F93AF932E
:10127000BF93EF93FF9388E493E00E94B603FF913E
:10128000EF91BF91AF919F918F917F916F915F91FE
:101290004F913F912F910F900BBE0F900FBE0F906B
:1012A0001F9018951F920F920FB60F9211240BB634
:1012B0000F922F938F939F93EF93FF93E091580397
:1012C000F09159038081E0915E03F0915F0382FD0C
:1012D00012C09081809161038F5F8F7320916203B0
:1012E000821751F0E0916103F0E0E85BFC4F958FCD
:1012F0008093610301C08081FF91EF919F918F9155
:101300002F910F900BBE0F900FBE0F901F9018954E
:101310000895789484B5826084BD84B5816084BD6D
:1013200085B5826085BD85B5816085BD80916E0083
:10133000816080936E0010928100809181008260B4
:1013400080938100809181008160809381008091F1
:1013500080008160809380008091B10084608093E0
:10136000B1008091B00081608093B00080919100C5
:1013700082608093910080919100816080939100C0
:10138000809190008160809390008091A1008260A4
:101390008093A1008091A10081608093A100809141
:1013A000A00081608093A0008091210182608093E1
:1013B0002101809121018160809321018091200190
:1013C00081608093200180917A00846080937A000C
:1013D00080917A00826080937A0080917A008160A7
:1013E00080937A0080917A00806880937A001092CE
:1013F000C100E0915803F091590382E08083E091AD
:101400005403F09155031082E0915603F091570375
:101410008FEC808310926003E0915C03F0915D0398
:1014200086E08083E0915A03F0915B0380818061C4
:101430008083E0915A03F0915B0380818860808310
:10144000E0915A03F0915B03808180688083E09192
:101450005A03F0915B0380818F7D808388ECF82EA6
:10146000F092920460E080918F040E94260861E06F
:10147000809190040E94260880919204843110F497
:101480001092920400919204C02FD0E01091910428
:10149000812F0E947906209709F4B1C0CF3FD10572
:1014A00009F4AFC0E12FF0E0EC5EFD4FE4918E2F28
:1014B00090E0FC013197E231F10508F09DC08827EA
:1014C000EC57FF4F8F4F0C94190E84B5806884BD84
:1014D00007BD9BC084B5806284BD08BD96C0809165
:1014E0008000806880938000D0938900C09388003A
:1014F0008CC080918000806280938000D0938B00AC
:10150000C0938A0082C080918000886080938000B0
:10151000D0938D00C0938C0078C08091B00080681B
:101520008093B0000093B30070C08091B0008062DF
:101530008093B0000093B40068C0809190008068F0
:1015400080939000D0939900C09398005EC08091E2
:101550009000806280939000D0939B00C0939A008B
:1015600054C080919000886080939000D0939D003B
:10157000C0939C004AC08091A00080688093A00026
:101580008091A0008F7B8093A000D093A900C0938E
:10159000A8003BC08091A00080628093A000D093FF
:1015A000AB00C093AA0031C08091A00088608093F6
:1015B000A000D093AD00C093AC0027C08091200163
:1015C000806880932001D0932901C09328011DC019
:1015D00080912001806280932001D0932B01C093E1
:1015E0002A0113C080912001886080932001D0934C
:1015F0002D01C0932C0109C0C038D10514F460E05E
:1016000001C061E0812F0E9426080E94470428CF74
:1016100080910E0490910F040C94B40FAF92BF927E
:10162000CF92DF92EF92FF920F931F93CF93DF93AE
:101630001092A2041092A10488EE93E0A0E0B0E022
:101640008093A3049093A404A093A504B093A6044C
:101650002EE232E03093A00420939F0410924B03BB
:1016600010924A0380934C0390934D03A0934E0332
:10167000B0934F0380E492E0909349038093480332
:1016800085EC90E0909355038093540384EC90E0B4
:10169000909357038093560380EC90E09093590306
:1016A0008093580381EC90E090935B0380935A03FE
:1016B00082EC90E090935D0380935C0386EC90E075
:1016C00090935F0380935E03109261031092620314
:1016D000109263031092640384E2E6E0F2E0AFE468
:1016E000B4E001900D928A95E1F709E812E0CFE8A5
:1016F000D4E09CE8C92E92E0D92E2FE8E22E22E019
:10170000F22E3CE8A32E32E0B32EF80181918F0136
:101710008883F60191916F019983F70191917F017F
:101720009A831B820E94790689810E9479068A81A8
:101730000E9479062596A016B10639F710927F040B
:1017400010928004109281041092820410928304FB
:1017500010928404109285041092860410928704DB
:10176000109288041092890410928A0410928B04BB
:1017700010928C0410928D0410928E0410927304B7
:1017800010927404109275041092760410927704EB
:10179000109278041092790410927A0410927B04CB
:1017A00010927C0410927D0410927E04A1EBB4E0B0
:1017B00081EE94E0FD01128E11A210A2168E158EFC
:1017C000148E138E178E38968E179F07A1F7EDE7AC
:1017D000F2E041E752E02BE632E08DEB94E069E87D
:1017E00072E001911191EA01E990F990AE01E901ED
:1017F000D9909E01CD2DD0E0C8815A96CC935A97AE
:10180000E701E880F9809196FC92EE929097E801CA
:10181000088119815E961C930E935D975C961C92CD
:101820001E925B975F961C925F97EC011992CE0116
:1018300018966E177F07A9F61092C5041092C4047B
:101840001092C30483E592E0909342048093410494
:1018500087E390E0A0E0B0E08093470490934804D1
:10186000A0934904B0934A0488E2809344048FE92A
:1018700094E090934604809345041092F4031092F0
:10188000F3031092F2031092F1031092F00381E03F
:101890008093EF031092EE0361E084E10E9426083A
:1018A00061E085E10E9426088091B9008E7F8093D7
:1018B000B9008091B9008D7F8093B90088E480934E
:1018C000B80085E48093BC0082E992E09093ED0338
:1018D0008093EC0383E992E09093EB038093EA0317
:1018E0000E94C506803AC9F410924C0410924B0431
:1018F00060E08DE390E00E9498066EE170E080E089
:1019000090E00E94A40860E28FE390E00E949806B5
:101910006EE170E080E090E00CC068EE73E080E083
:1019200090E00E94A4080E94C506803A09F044C0D5
:10193000DBCF0E94A4080E94C506803A29F06AE025
:1019400070E080E090E0F5CF62E370E080E090E04E
:101950000E94A40860E08EE390E00E9498066AE08E
:1019600070E080E090E00E94A40860E087E090E0F2
:101970000E94980660E08FE390E00E9498066AE07B
:1019800070E080E090E00E94A40888E090E09093EE
:101990004C0480934B0468E08DE390E00E9498062D
:1019A0006EE170E080E090E00E94A40864E170E0E5
:1019B00080E090E00E94A40810924E0410924D0422
:1019C0001092150410921604109217041092180425
:1019D0001092190410921A0410921B0410921C0405
:1019E00010921D0410921E0410921F0410922004E5
:1019F00010922104109222041092230410922404C5
:101A000010922504109226041092270410922804A4
:101A10001092290410922A0410922B0410922C0484
:101A20008AE097EDA3E2BCE38093390490933A04F3
:101A3000A0933B04B0933C0480E090E0A8ECB2E4B7
:101A400080933D0490933E04A0933F04B0934004E0
:101A500010922D0410922E0410922F041092300434
:101A60001092310410923204109233041092340414
:101A700010923504109236041092370410923804F4
:101A800085EF93E09093FF038093FE0390930A0405
:101A90008093090490930C0480930B0484E091E0FC
:101AA0000E941C0F90930F0480930E040496909351
:101AB0001104809310041092FA031092F90310920B
:101AC000F8031092F7031092F6031092F503CFB7C4
:101AD000F89480919E04811124C0E9E0F3E08491A0
:101AE000E3ECF2E09491E82FF0E0EE0FFF1FEC58EA
:101AF000FD4FA591B491EC91E92321F461E085E3D8
:101B00000E94260885E30E9479068CB580618CBD11
:101B10008CB580648CBD84E30E94790683E30E94C7
:101B2000790680919E048F5F80939E04CFBF8DE5E0
:101B30008CBD81E08DBD8FB7F894C090E503D09047
:101B4000E603E090E703F090E8038FBF1EE0CBE1EF
:101B5000DEE42FB7F8948091E5039091E603A0911D
:101B6000E703B091E8032FBF8C199D09AE09BF09A7
:101B700088389341A105B10508F044C010921304C0
:101B8000109312040E9443060E94B505892BB1F5FB
:101B9000809112048F3091F580910E0490910F0482
:101BA0009093F6038093F5038091130487FD26C07C
:101BB00081E080931304E0911004F09111041082ED
:101BC0008CE0809312040E9443060E94B505892B85
:101BD000C9F4809112048D30A9F4E0910E04F091C3
:101BE0000F04808191819093F8038093F7038281A1
:101BF00093819093FA038093F90304C0CE01019777
:101C0000F1F7A7CF1092AB041092AC041092AD0480
:101C10001092AE041092AF041092B004DF91CF91F5
:101C20001F910F91FF90EF90DF90CF90BF90AF90FA
:101C30000895EE0FFF1F881F8BBF0790F691E02DD0
:101C40001994E89409C097FB3EF49095809570959F
:101C500061957F4F8F4F9F4F9923A9F0F92F96E9F8
:101C6000BB279395F695879577956795B795F1116D
:101C7000F8CFFAF4BB0F11F460FF1BC06F5F7F4F0A
:101C80008F4F9F4F16C0882311F096E911C077231C
:101C900021F09EE8872F762F05C0662371F096E825
:101CA000862F70E060E02AF09A95660F771F881FF4
:101CB000DAF7880F9695879597F908950E94710E27
:101CC0000C94E20E0E94D40E38F00E94DB0E20F03D
:101CD000952311F00C94CB0E0C94D10E11240C947E
:101CE000160F0E94F30E70F3959FC1F3950F50E00D
:101CF000551F629FF001729FBB27F00DB11D639FBE
:101D0000AA27F00DB11DAA1F649F6627B00DA11D63
:101D1000661F829F2227B00DA11D621F739FB00D09
:101D2000A11D621F839FA00D611D221F749F332779
:101D3000A00D611D231F849F600D211D822F762F12
:101D40006A2F11249F5750409AF0F1F088234AF0EF
:101D5000EE0FFF1FBB1F661F771F881F915050405B
:101D6000A9F79E3F510580F00C94CB0E0C94160FF2
:101D70005F3FE4F3983ED4F3869577956795B795E2
:101D8000F795E7959F5FC1F7FE2B880F911D9695FC
:101D9000879597F9089597F99F6780E870E060E06C
:101DA00008959FEF80EC089500240A9416161706F4
:101DB00018060906089500240A941216130614063C
:101DC00005060895092E0394000C11F4882352F09F
:101DD000BB0F40F4BF2B11F460FF04C06F5F7F4F57
:101DE0008F4F9F4F089557FD9058440F551F59F03E
:101DF0005F3F71F04795880F97FB991F61F09F3FF8
:101E000079F087950895121613061406551FF2CF20
:101E10004695F1DF08C0161617061806991FF1CF70
:101E200086957105610508940895E894BB27662797
:101E30007727CB0197F908950F931F93CF93DF93E3
:101E40008230910510F482E090E0E091FD04F09181
:101E5000FE0420E030E0A0E0B0E0309719F14081CE
:101E600051810281138148175907C8F084179507DB
:101E700069F4109731F012960C93129713961C93F5
:101E800027C00093FD041093FE0422C021153105E4
:101E900019F04217530718F49A01BD01EF01DF0151
:101EA000F801DBCF21153105F9F0281B390B24305F
:101EB000310580F48A819B816115710521F0FB0158
:101EC0009383828304C09093FE048093FD04FE01FB
:101ED000329644C0FE01E20FF31F8193919322508A
:101EE0003109398328833AC02091FB043091FC04E6
:101EF000232B41F420910202309103023093FC0421
:101F00002093FB042091000230910102211531053C
:101F100041F42DB73EB74091040250910502241BB5
:101F2000350BE091FB04F091FC04E217F307A0F4F9
:101F30002E1B3F0B2817390778F0AC014E5F5F4F1F
:101F40002417350748F04E0F5F1F5093FC04409351
:101F5000FB048193919302C0E0E0F0E0CF01DF91B8
:101F6000CF911F910F910895CF93DF93009709F4BC
:101F700081C0FC01329713821282A091FD04B091BE
:101F8000FE04109781F420813181820F931F2091EC
:101F9000FB043091FC042817390751F5F093FC0439
:101FA000E093FB0467C0ED0120E030E0CE17DF07CF
:101FB00040F44A815B819E0141155105F1F0EA012F
:101FC000F5CFD383C28340815181840F951FC817F9
:101FD000D90759F488819981840F951F02969183BE
:101FE00080838A819B81938382832115310529F423
:101FF000F093FE04E093FD043DC0E901FB83EA8316
:1020000049915991C40FD51FEC17FD0761F48081E8
:102010009181840F951F0296E901998388838281BB
:1020200093819B838A83E0E0F0E012968D919C91EE
:102030001397009719F0FD01DC01F7CF8D919C916A
:1020400011979D012E5F3F4F820F931F2091FB043C
:102050003091FC042817390769F4309729F410925D
:10206000FE041092FD0402C013821282B093FC049D
:10207000A093FB04DF91CF91089581E090E0F89464
:102080000C945110FB01DC014150504048F001908C
:102090000D920020C9F701C01D9241505040E0F759
:1020A000089511E0CEE8D1E000E006C0802FFE01E7
:1020B0000E94190E2196011DCF38D10780E0080734
:0620C000A9F7F894FFCF20
:1020C6000000FF04200052B85E3F0000003F000001
:1020D600803F00000000000080BF0000803F52B833
:1020E6005EBF0000003F0000803F00000000ED02E0
:1020F600C0026C039402B802A4029502000000001C
:10210600D80341036F032504A0037E039203000056
:102116000000008809B30587048A046E05000000E4
:102126000000000000870488048804363738393AEE
:102136003B1E005A009600D2000E014A01200320E1
:10214600032003200320032003040D07030C0602CB
:0A2156000B05424E4F3035350000F6
:00000001FF
