:100000000C9456010C9487010C9487010C94870181
:100010000C9487010C9487010C9487010C94870140
:100020000C9487010C9487010C9487010C94870130
:100030000C9487010C9487010C9487010C94870120
:100040000C9487010C9487010C9487010C94870110
:100050000C9487010C9487010C9487010C94B506CD
:100060000C9487010C9429070C94FF060C948701CB
:100070000C9487010C9487010C9487010C948701E0
:100080000C9487010C9487010C9487010C948701D0
:100090000C9487010C9487010C9487010C945F07E2
:1000A0000C9487010C9487010C9487010C948701B0
:1000B0000C9487010C9487010C9487010C948701A0
:1000C0000C9487010C9487010C9487010C94870190
:1000D0000C9487010C9487010C9487010C94870180
:1000E0000C948701A102A402930297029B02DB02F7
:1000F000A802AC02B202B602BA02C002C402C8022E
:10010000DB02CE02D202D6020C9491080C94D202E9
:100110000C9457050C94BA020C945C030C94CC0418
:100120000C94A4020C945E030C9488030C94A80213
:100130000C94B3060C94B9030C94A1020C945D03C7
:100140000C94D6020C9454050C948A050C94F1037B
:100150000C94B6020C94EF040C9424050C94B20297
:100160000C94CB040C94AB030C9458050C94AC0287
:100170000C9497020C94C0020C9497030C94DB042B
:100180000C94CE020C943E040C9493020C94C40282
:100190000C94C8020C94F7040C946E060C94DB02C9
:1001A0000C949B0200000A0B02090C0D0E080703B9
:1001B000040100000000000000000000000000003A
:1001C000000000000000000000000000000000002F
:1001D00012111000000000000000000000000000EC
:1001E00000000000000000000000000022002500C8
:1001F00028002B002E003100340002010000050110
:1002000008010B0100002100240027002A002D0016
:100210003000330001010000040107010A01050557
:100220000505070508080808020202020A0A08086C
:10023000040404040101010101010101030303039A
:1002400003030303040707070C0C0C0C0C0C0C0C29
:100250000202020206060606060606060B0B0B0B3A
:100260000B0B0B0B0102102020080810204010205F
:10027000408002010201080402010102040810206A
:100280004080804020100804020180040201804068
:1002900020100804020108040201010204081020D1
:1002A00040800102040810204080910811241FBEE4
:1002B000CFEFD1E2DEBFCDBF00E00CBF12E0A0E087
:1002C000B2E0E4E2FBE100E00BBF02C007900D9258
:1002D000A238B107D9F724E0A2E8B2E001C01D922C
:1002E000A13CB207E1F711E0C6E5D1E000E006C0AD
:1002F00021970109802FFE010E94580BC535D107B7
:1003000080E00807A9F70E94090A0C94900D0C944C
:10031000000090E0FC01EC59FD4F2491FC01E25EED
:10032000FD4F8491882399F090E0880F991FFC017C
:10033000EC5FFD4FA591B491FC01E651FE4F859114
:1003400094918FB7F894EC91E22BEC938FBF0895C2
:10035000282F30913E03313208F04AC080911A03B1
:100360008111FCCF90913D0342E040931A0320930A
:1003700019032FEF209318031092170330931603DD
:10038000EDE1F3E0A6EFB2E020E0321721F0419179
:100390004D932F5FFACF1092F5022091F502990F3D
:1003A000922B9093F5029091F402913061F41092A7
:1003B000F4029091F5029093BB009091BC0093FDE4
:1003C000F8CF95EC01C095EE9093BC0090911A0384
:1003D0009230E1F3909118039F3F79F080911803D8
:1003E000803241F080911803803331F084E005C001
:1003F00081E003C082E001C083E010921C031092F0
:100400003E0310921B0308951F93CF93DF93162F83
:10041000C8EED3E09B8121E020931B0390933D0322
:1004200010921C0310923E03AC81BD81ED91FC91B2
:1004300011970190F081E02D682FCD0119958C81E5
:100440009D81DC01ED91FC910190F081E02D612F07
:10045000199581E00E94A80181E0DF91CF911F9161
:10046000089590911A039111FCCF91E090931A0393
:10047000909319032FEF2093180310921703260F60
:10048000209316039093F5029091F502880F892B23
:100490008093F5028091F402813061F41092F402AD
:1004A0008091F5028093BB008091BC0083FDF8CF62
:1004B00085EC01C085EE8093BC0080911A038130E9
:1004C000E1F380911703861710F460911703A6EFEC
:1004D000B2E0E4EDF2E080E0861721F09D91919387
:1004E0008F5FFACF089590E0FC01EC55FE4F4491E8
:1004F000FC01EC59FD4F2491FC01E25EFD4F94910B
:10050000992309F466C0442309F455C050E0FA0168
:100510003197E231F10508F04EC08827EE58FF4FC1
:100520008F4F0C94580B809180008F7707C080917B
:1005300080008F7D03C080918000877F8093800042
:100540003AC084B58F7702C084B58F7D84BD33C037
:100550008091B0008F7703C08091B0008F7D809331
:10056000B00029C0809190008F7707C080919000E3
:100570008F7D03C080919000877F809390001BC087
:100580008091A0008F7707C08091A0008F7D03C06D
:100590008091A000877F8093A0000DC080912001F2
:1005A0008F7707C0809120018F7D03C0809120014B
:1005B000877F80932001E92FF0E0EE0FFF1FE651C7
:1005C000FE4FA591B4918FB7F894EC91E22BEC9388
:1005D0008FBF0895CF93DF93EC01862F6883498303
:1005E0002A831B821C820E94890189810E948901C1
:1005F0008A81DF91CF910C9489013FB7F894809163
:10060000CE029091CF02A091D002B091D10226B536
:10061000A89B05C02F3F19F00196A11DB11D3FBF3A
:10062000BA2FA92F982F8827820F911DA11DB11DC8
:10063000BC01CD0142E0660F771F881F991F4A95C4
:10064000D1F708958F929F92AF92BF92CF92DF928F
:10065000EF92FF926B017C010E94FD024B015C0155
:10066000C114D104E104F104F1F00E94FD02DC01A7
:10067000CB0188199909AA09BB09883E9340A105B5
:10068000B10570F321E0C21AD108E108F10888EE43
:10069000880E83E0981EA11CB11CC114D104E10492
:1006A000F10419F7DDCFFF90EF90DF90CF90BF906E
:1006B000AF909F908F90089508950895CF92DF9204
:1006C000EF92FF920F931F93CF93DF936C017A0108
:1006D0008B01C0E0D0E0CE15DF0581F0D8016D912F
:1006E0008D01D601ED91FC910190F081E02DC601C4
:1006F0001995892B11F02196EECF7E01C701DF916C
:10070000CF911F910F91FF90EF90DF90CF900895C0
:10071000FC01538D448D252F30E0842F90E0821B07
:10072000930B541710F0CF96089501970895FC018C
:10073000918D828D981761F0828DDF01A80FB11D18
:100740005D968C91928D9F5F9F73928F90E008953C
:100750008FEF9FEF0895FC01918D828D981731F0F6
:10076000828DE80FF11D858D90E008958FEF9FEF4A
:100770000895FC01918D228D892F90E0805C9F4F20
:10078000821B91098F73992708958FE393E00E944C
:10079000B90321E0892B09F420E0822F0895FC01A0
:1007A000848DDF01A80FB11DA35ABF4F2C91848DFA
:1007B00090E001968F739927848FA689B7892C932F
:1007C000A089B1898C91837080648C93938D848D82
:1007D000981306C00288F389E02D80818F7D808385
:1007E0000895EF92FF920F931F93CF93DF93EC0145
:1007F00081E0888F9B8D8C8D981305C0E889F989DD
:10080000808185FD26C0F62E0B8D10E00F5F1F4FF7
:100810000F731127E02E8C8DE8120CC00FB607FC69
:10082000FACFE889F989808185FFF5CFCE010E9452
:10083000CF03F1CF8B8DFE01E80FF11DE35AFF4F7F
:10084000F0829FB7F8940B8FEA89FB8980818062E0
:100850000AC09FB7F894EE89FF896083E889F98917
:1008600080818370806480839FBF81E090E0DF910E
:10087000CF911F910F91FF90EF900895CF93DF9349
:10088000EC01888D8823C9F0EA89FB89808185FD88
:1008900005C0A889B9898C9186FD0FC00FB607FCE9
:1008A000F5CF808185FFF2CFA889B9898C9185FF2A
:1008B000EDCFCE010E94CF03E7CFDF91CF91089516
:1008C00080E090E0892B21F00E94C503811125C0B2
:1008D00080E090E0892B41F080E090E0892B21F0CE
:1008E0000E94000081111CC080E090E0892B41F043
:1008F00080E090E0892B21F00E940000811113C05C
:1009000080E090E0892BA1F080E090E0892B81F0DD
:100910000E94000081110AC008950E940000D8CFF3
:100920000E940000E1CF0E940000EACF0C9400007A
:10093000089585ED8093BC008091BC0084FDFCCFC0
:1009400010921A0308954091A202262F30E0240F3E
:10095000311D21323105DCF420911A032430C9F411
:10096000FC0180E090E0861758F43091A2022191BA
:10097000DC01AE57BD4FA30FB11D2C930196F3CFF1
:100980008091A202680F6093A20280E0089581E046
:10099000089582E008950895E091D3028091D202F3
:1009A000E81730F4F0E0EC52FD4F808190E00895BC
:1009B0008FEF9FEF08959091D3028091D202981704
:1009C00050F4E92FF0E0EC52FD4F208130E09F5FC2
:1009D0009093D30202C02FEF3FEFC9010895809199
:1009E000D20290E02091D302821B91090895CF9208
:1009F000DF92EF92FF920F931F93CF93DF937C01CF
:100A0000CB018A0120911B03222389F0EB016B01AA
:100A1000C40ED51ECC15DD0569F06991D701ED91A5
:100A2000FC910190F081E02DC7011995F3CF642F5F
:100A30000E94A304C801DF91CF911F910F91FF90F5
:100A4000EF90DF90CF900895CF93DF931F92CDB7B3
:100A5000DEB7698320911B032223D1F020913E034E
:100A6000203240F021E030E0FC013383228380E03B
:100A700090E015C080911C03E82FF0E0E35EFC4F8E
:100A8000998190838F5F80931C0380933E0305C000
:100A900061E0CE0101960E94A30481E090E00F90F6
:100AA000DF91CF910895089580E090E00895089532
:100AB0000895CF93DF93C8EED3E08B8191E09093BC
:100AC0001B0380933D0310921C0310923E038C8104
:100AD0009D81DC01ED91FC910190F081E02D60E0C1
:100AE000199581E00E94A80161E08B810E9431028A
:100AF0001092D3028093D2028C819D81DC01ED9112
:100B0000FC910284F385E02D1995DF91CF91089532
:100B10000E947C0D8F929F92AF92BF92CF92DF92F4
:100B2000EF92FF920F931F93CF93DF93CDB7DEB772
:100B300062970FB6F894DEBF0FBECDBF6C018B017C
:100B400084E2DB011D928A95E9F784E290E0A0E05F
:100B5000B0E0FB0180839183A283B383F601868199
:100B60009781A085B185FB0184839583A683B78394
:100B700083E090E0A0E0B0E080879187A287B38710
:100B80002FB7F8948091CA029091CB02A091CC0229
:100B9000B091CD022FBF808B918BA28BB38BFE01C6
:100BA00031968CE0DF011D928A95E9F77E01BDE068
:100BB000EB0EF11C86E0F70111928A95E9F7D60158
:100BC00013968C91139791E090931B0380933D03B0
:100BD00010921C0310923E0314968D919C911597D0
:100BE000DC01ED91FC910190F081E02D6AE1199515
:100BF00081E00E94A80166E0F60183810E94310233
:100C00001092D3028093D2025E01F3E1AF0EB11CC9
:100C1000D60114968D919C911597DC01ED91FC9174
:100C20000284F385E02D1995F70181937F01EA1580
:100C3000FB0571F76D857E85072E000C880B990BDF
:100C40000E94620B20E030E040E85DE30E949D0BD3
:100C50004B015C016F857889072E000C880B990B7E
:100C60000E94620B20E030E040E85DE30E949D0BB3
:100C70006B017C0169897A89072E000C880B990B1E
:100C80000E94620B20E030E040E85DE30E949D0B93
:100C9000D80154968D929D92AD92BC925797F801CF
:100CA000C08ED18EE28EF38E5C966D937D938D9384
:100CB0009C935F9781E062960FB6F894DEBF0FBEFB
:100CC000CDBFDF91CF911F910F91FF90EF90DF90FB
:100CD000CF90BF90AF909F908F9008950F931F93E8
:100CE000CF93DF938C01EB0188E2FB0111928A958F
:100CF000E9F74BE050E06AE772E0CE010E94810D17
:100D00001B8681E090E0A0E0B0E08C879D87AE87F5
:100D1000BF87F80186819781A085B185888B998BE3
:100D2000AA8BBB8B83E090E0A0E0B0E08C8B9D8B26
:100D3000AE8BBF8B1CA21DA21EA21FA2188E198EE5
:100D40001A8E1B8E1C8E1D8E1E8E1F8E8AE097EDB6
:100D5000A3E2BCE388A399A3AAA3BBA3DF91CF918D
:100D60001F910F9108950C94F30C1F920F920FB6E0
:100D70000F9211242F933F938F939F93AF93BF9321
:100D80008091CA029091CB02A091CC02B091CD0289
:100D90003091C90223E0230F2D3720F40196A11DC5
:100DA000B11D05C026E8230F0296A11DB11D209399
:100DB000C9028093CA029093CB02A093CC02B09355
:100DC000CD028091CE029091CF02A091D002B0913D
:100DD000D1020196A11DB11D8093CE029093CF0246
:100DE000A093D002B093D102BF91AF919F918F9108
:100DF0003F912F910F900FBE0F901F9018951F924B
:100E00000F920FB60F9211240BB60F922F933F93B0
:100E10004F935F936F937F938F939F93AF93BF9302
:100E2000EF93FF938FE393E00E94CF03FF91EF9145
:100E3000BF91AF919F918F917F916F915F914F91F2
:100E40003F912F910F900BBE0F900FBE0F901F90F0
:100E500018951F920F920FB60F9211240BB60F9296
:100E60002F938F939F93EF93FF93E0914F03F09114
:100E700050038081E0915503F091560382FD12C02A
:100E80009081809158038F5F8F732091590382174F
:100E900051F0E0915803F0E0E15CFC4F958F8093B6
:100EA000580301C08081FF91EF919F918F912F9105
:100EB0000F900BBE0F900FBE0F901F9018951F92B2
:100EC0000F920FB60F9211240BB60F922F933F93F0
:100ED0004F935F936F937F938F939F93AF93BF9342
:100EE000EF93FF938091B900887F803609F49CC00E
:100EF00068F5883209F45BC090F4803109F454C07D
:100F000038F4882309F4F6C0883009F44DC0F6C0DF
:100F1000883109F44CC0803209F45DC0EFC08034E0
:100F200009F468C048F4803309F455C0883309F0E7
:100F3000E5C080931803D8C0803509F44FC08835C8
:100F400009F45DC0883409F0D9C0D6C0883909F4E5
:100F5000C7C0A8F4883709F467C038F4883609F4A4
:100F600063C0803709F460C0C9C0883809F4B8C0CC
:100F7000803909F45FC0803809F0C0C05BC0803B95
:100F800009F486C038F4803A09F466C0883A09F456
:100F90007FC0B4C0803C09F4A7C0883C09F4A4C059
:100FA000883B09F48AC0AAC08091F50210C09091D4
:100FB000170380911603981770F5E091170381E0ED
:100FC0008E0F80931703F0E0EA50FD4F80818093ED
:100FD000BB0085EC86C0809318038EC0E091170398
:100FE00081E08E0F809317038091BB00F0E0EA5000
:100FF000FD4F808390911703809116036EC0E0919E
:10100000170381E08E0F809317038091BB00F0E0FF
:10101000EA50FD4F80838091190381116DC081E0FA
:101020008093F40284EA61C083E080931A031092F3
:10103000C402CFCF8091C402803208F051C0E09149
:10104000C40281E08E0F8093C4028091BB00F0E067
:10105000EC55FD4F8083BDCF85EC8093BC00109292
:101060001A038091C402803230F4E091C402F0E0AF
:10107000EC55FD4F10826091C40270E0E091C50212
:10108000F091C60284EA92E019951092C40236C02B
:1010900084E080931A031092A3021092A202E091BE
:1010A000C702F091C80219958091A202811105C072
:1010B00081E08093A20210928202E091A30281E07B
:1010C0008E0F8093A302F0E0EE57FD4F8081809356
:1010D000BB009091A3028091A202981708F479CFE7
:1010E00085E88093BC000AC085EC8093BC00109218
:1010F0001A0304C0109218030E949904FF91EF9103
:10110000BF91AF919F918F917F916F915F914F911F
:101110003F912F910F900BBE0F900FBE0F901F901D
:101120001895FF920F931F93CF93DF931092420372
:101130001092410388EE93E0A0E0B0E08093430377
:1011400090934403A0934503B09346032EE232E00C
:101150003093400320933F0325EC30E030934C0361
:1011600020934B0324EC30E030934E0320934D0347
:1011700020EC30E03093500320934F0321EC30E01B
:10118000309352032093510322EC30E03093540308
:101190002093530326EC30E03093560320935503FD
:1011A000109258031092590310925A0310925B0345
:1011B0001092DF031092DE038093E0039093E1032B
:1011C000A093E203B093E30380E492E09093DD0305
:1011D0008093DC0322E043E064E08EE694E00E942A
:1011E000EA022BE04CE06DE083E794E00E94EA0223
:1011F00025E046E067E088E794E00E94EA0284E2A6
:10120000E6E0F2E0ADE7B4E001900D928A95E1F7F7
:101210001092AD041092AE041092AF041092B0047C
:101220001092B1041092B2041092B3041092B4045C
:101230001092B5041092B6041092B7041092B8043C
:101240001092B9041092BA041092BB041092BC041C
:101250001092A1041092A2041092A3041092A4046C
:101260001092A5041092A6041092A7041092A8044C
:101270001092A9041092AA041092AB041092AC042C
:10128000A4E2B4E0FD011082178216821482138258
:10129000128211821582389664E0E435F60799F7D8
:1012A000EEE6F2E042E652E02CE532E080E694E041
:1012B00061917191EA0109911991AE01E901F990E9
:1012C0009E01CF2DD0E0C881CC93E801088119811F
:1012D00017961C930E931697EB01688179811496EB
:1012E0007C936E93139712961C921E9211971596EB
:1012F0001C921597EC011992CE011896D2E0EA37AC
:10130000FD07B1F61092680410926704109266040B
:101310001092F4031092F5031092F6031092F70363
:101320001092F8031092F9031092FA031092FB0343
:101330001092FC031092FD031092FE031092FF0323
:1013400010920004109201041092020410920304FF
:1013500010920404109205041092060410920704DF
:10136000109208041092090410920A0410920B04BF
:101370008AE097EDA3E2BCE38093180490931904EC
:10138000A0931A04B0931B0480E090E0A8ECB2E4B0
:1013900080931C0490931D04A0931E04B0931F041B
:1013A00010920C0410920D0410920E0410920F046F
:1013B000109210041092110410921204109213044F
:1013C000109214041092150410921604109217042F
:1013D00082E592E09093E9038093E80387E390E04D
:1013E000A0E0B0E08093EE039093EF03A093F003AE
:1013F000B093F10388E28093EB038CED93E090933C
:10140000ED038093EC03DF91CF911F910F91FF903B
:101410000895789484B5826084BD84B5816084BD6C
:1014200085B5826085BD85B5816085BD80916E0082
:10143000816080936E0010928100809181008260B3
:1014400080938100809181008160809381008091F0
:1014500080008160809380008091B10084608093DF
:10146000B1008091B00081608093B00080919100C4
:1014700082608093910080919100816080939100BF
:10148000809190008160809390008091A1008260A3
:101490008093A1008091A10081608093A100809140
:1014A000A00081608093A0008091210182608093E0
:1014B000210180912101816080932101809120018F
:1014C00081608093200180917A00846080937A000B
:1014D00080917A00826080937A0080917A008160A6
:1014E00080937A0080917A00806880937A001092CD
:1014F000C100E0914F03F091500382E08083E091BE
:101500004B03F0914C031082E0914D03F0914E0398
:101510008FEC808310925703E0915303F0915403B2
:1015200086E08083E0915103F091520380818061D5
:101530008083E0915103F091520380818860808321
:10154000E0915103F0915203808180688083E091A3
:101550005103F091520380818F7D808388EE93E068
:1015600090932104809320041092D3021092D2020F
:1015700010921C0310923E0310921A0381E0809394
:1015800019031092F40284E10E94730285E10E9423
:1015900073028091B9008E7F8093B9008091B90069
:1015A0008D7F8093B90088E48093B80085E48093B0
:1015B000BC008CE593E09093C8028093C7028DE550
:1015C00093E09093C6028093C5020E945905803A29
:1015D000C9F41092F3031092F20360E08DE390E0FF
:1015E0000E9404026EE170E080E090E00E9422031D
:1015F00060E28FE390E00E9404026EE170E080E020
:1016000090E00CC068EE73E080E090E00E9422035E
:101610000E945905803A09F044C0DBCF0E942203A2
:101620000E945905803A29F06AE070E080E090E07D
:10163000F5CF62E370E080E090E00E94220360E07A
:101640008EE390E00E9404026AE070E080E090E0A7
:101650000E94220360E087E090E00E94040260E0C4
:101660008FE390E00E9404026AE070E080E090E086
:101670000E94220388E090E09093F3038093F203AA
:1016800068E08DE390E00E9404026EE170E080E08B
:1016900090E00E94220364E170E080E090E00E940C
:1016A000220310922304109222040E946004FDCFB2
:1016B000EE0FFF1F881F8BBF0790F691E02D199446
:1016C000E89409C097FB3EF49095809570956195DC
:1016D0007F4F8F4F9F4F9923A9F0F92F96E9BB2792
:1016E0009395F695879577956795B795F111F8CF0E
:1016F000FAF4BB0F11F460FF1BC06F5F7F4F8F4F79
:101700009F4F16C0882311F096E911C0772321F06E
:101710009EE8872F762F05C0662371F096E8862F06
:1017200070E060E02AF09A95660F771F881FDAF75D
:10173000880F9695879597F908950E94B00B0C94A1
:10174000210C0E94130C38F00E941A0C20F09523F3
:1017500011F00C940A0C0C94100C11240C94550CE0
:101760000E94320C70F3959FC1F3950F50E0551F06
:10177000629FF001729FBB27F00DB11D639FAA27E6
:10178000F00DB11DAA1F649F6627B00DA11D661F35
:10179000829F2227B00DA11D621F739FB00DA11D56
:1017A000621F839FA00D611D221F749F3327A00D10
:1017B000611D231F849F600D211D822F762F6A2FAC
:1017C00011249F5750409AF0F1F088234AF0EE0F11
:1017D000FF1FBB1F661F771F881F91505040A9F73E
:1017E0009E3F510580F00C940A0C0C94550C5F3F01
:1017F000E4F3983ED4F3869577956795B795F7957A
:10180000E7959F5FC1F7FE2B880F911D96958795F1
:1018100097F9089597F99F6780E870E060E0089570
:101820009FEF80EC089500240A94161617061806F8
:101830000906089500240A941216130614060506D4
:101840000895092E0394000C11F4882352F0BB0F65
:1018500040F4BF2B11F460FF04C06F5F7F4F8F4FC8
:101860009F4F089557FD9058440F551F59F05F3F03
:1018700071F04795880F97FB991F61F09F3F79F0B2
:1018800087950895121613061406551FF2CF469534
:10189000F1DF08C0161617061806991FF1CF8695B6
:1018A0007105610508940895E894BB27662777279A
:1018B000CB0197F908950F931F93CF93DF93823055
:1018C000910510F482E090E0E091BF04F091C00433
:1018D00020E030E0A0E0B0E0309719F14081518184
:1018E0000281138148175907C8F08417950769F4D6
:1018F000109731F012960C93129713961C9327C0F1
:101900000093BF041093C00422C02115310519F0C3
:101910004217530718F49A01BD01EF01DF01F801E6
:10192000DBCF21153105F9F0281B390B24303105A7
:1019300080F48A819B816115710521F0FB019383FD
:10194000828304C09093C0048093BF04FE0132964A
:1019500044C0FE01E20FF31F81939193225031099D
:10196000398328833AC02091BD043091BE04232BD3
:1019700041F420910202309103023093BE0420937F
:10198000BD0420910002309101022115310541F47E
:101990002DB73EB74091040250910502241B350B30
:1019A000E091BD04F091BE04E217F307A0F42E1BF2
:1019B0003F0B2817390778F0AC014E5F5F4F2417B3
:1019C000350748F04E0F5F1F5093BE044093BD048F
:1019D0008193919302C0E0E0F0E0CF01DF91CF91DD
:1019E0001F910F910895CF93DF93009709F481C061
:1019F000FC01329713821282A091BF04B091C004FF
:101A0000109781F420813181820F931F2091BD04B2
:101A10003091BE042817390751F5F093BE04E093C6
:101A2000BD0467C0ED0120E030E0CE17DF0740F4D1
:101A30004A815B819E0141155105F1F0EA01F5CF24
:101A4000D383C28340815181840F951FC817D90762
:101A500059F488819981840F951F02969183808320
:101A60008A819B81938382832115310529F4F09328
:101A7000C004E093BF043DC0E901FB83EA834991C0
:101A80005991C40FD51FEC17FD0761F48081918136
:101A9000840F951F0296E90199838883828193813F
:101AA0009B838A83E0E0F0E012968D919C911397DE
:101AB000009719F0FD01DC01F7CF8D919C911197F2
:101AC0009D012E5F3F4F820F931F2091BD043091E7
:101AD000BE042817390769F4309729F41092C0041E
:101AE0001092BF0402C013821282B093BE04A0936E
:101AF000BD04DF91CF91089581E090E0F8940C94BB
:101B0000900DFB01DC014150504048F001900D92D6
:101B10000020C9F701C01D9241505040E0F70895E0
:041B2000F894FFCF67
:101B24000000C104200052B85E3F0000003F0000E6
:101B3400803F00000000000080BF0000803F52B8DA
:101B44005EBF0000003F0000803F00000000F10382
:101B54005E0388033E04B9039703AB03000000004F
:101B64002405F7045405CB04EF04DB04CC04000083
:101B740000005705B30658058A056E06363738390E
:101B84003A3B1E005A009600D2000E014A0120037F
:101B940020032003200320032003424E4F30353519
:021BA40000003F
:00000001FF
