:100000000C945B010C948C010C948C010C948C016D
:100010000C948C010C948C010C948C010C948C012C
:100020000C948C010C948C010C948C010C948C011C
:100030000C948C010C948C010C948C010C948C010C
:100040000C948C010C948C010C948C010C948C01FC
:100050000C948C010C948C010C948C010C94D6089B
:100060000C948C010C944A090C9420090C948C017A
:100070000C948C010C948C010C948C010C948C01CC
:100080000C948C010C948C010C948C010C948C01BC
:100090000C948C010C948C010C948C010C94D20463
:1000A0000C948C010C948C010C948C010C948C019C
:1000B0000C948C010C948C010C948C010C948C018C
:1000C0000C948C010C948C010C948C010C948C017C
:1000D0000C948C010C948C010C948C010C948C016C
:1000E0000C948C017503780367036B036F03AF03F4
:1000F0007C03800386038A038E03940398039C0386
:10010000AF03A203A603AA030C9435070C9451066F
:100110000C9455080C9498030C949E0A0C94670355
:100120000C9486030C948A030C94ED070C94EF074F
:100130000C947C060C949C030C9475030C9494030F
:100140000C9436020C946B030C94A40A0C946F0369
:100150000C9487090C945C020C949A080C949007F8
:100160000C9448020C94A2030C94AF030C948E06DA
:100170000C94A2060C9491070C94A6030C94800393
:100180000C9438020C948E030C947F060C94AA03F2
:100190000C94BE070C9437020C94E8060C94780378
:1001A0000C947C030C94B0060C94390200000A0BEA
:1001B00002090C0D0E0807030401000000000000F6
:1001C000000000000000000000000000000000002F
:1001D00000000000000000001211100000000000EC
:1001E000000000000000000000000000000000000F
:1001F000000000002200250028002B002E00310006
:10020000340002010000050108010B01000021007B
:10021000240027002A002D003000330001010000D7
:10022000040107010A0101021020200808102040E3
:1002300010204080020102010804020101020408AA
:100240001020408080402010080402018004020138
:100250008040201008040201080402010102040881
:10026000102040800102040810204080050505058B
:10027000070508080808020202020A0A080804041E
:10028000040401010101010101010303030303034C
:100290000303040707070C0C0C0C0C0C0C0C0202DB
:1002A000020206060606060606060B0B0B0B0B0BD8
:1002B0000B0BA40A9E0A11241FBECFEFD1E2DEBFB2
:1002C000CDBF00E00CBF12E0A0E0B2E0ECEAF0E24B
:1002D00000E00BBF02C007900D92AC39B107D9F70F
:1002E00025E0ACE9B2E001C01D92A130B207E1F710
:1002F00011E0CAE5D1E000E006C021970109802F96
:10030000FE010E94D60DC935D10780E00807A9F784
:100310000E9488090C9444100C940000282F3091FE
:10032000F303313208F04AC08091F2038111FCCF0F
:100330009091440342E04093F2032093F1032FEFA6
:10034000209343031092420330934103EDE9F2E01E
:10035000A1E2B3E020E0321721F041914D932F5FED
:10036000FACF1092200320912003990F922B9093A3
:1003700020039091F003913061F41092F00390917A
:1003800020039093BB009091BC0093FDF8CF95ECB7
:1003900001C095EE9093BC009091F2039230E1F38E
:1003A000909143039F3F79F080914303803241F065
:1003B00080914303803331F084E005C081E003C0C5
:1003C00082E001C083E01092F4031092F3031092D4
:1003D0009C0208959091F2039111FCCF91E09093CB
:1003E000F2039093F1032FEF209343031092420303
:1003F000260F209341039093200390912003880FB0
:10040000892B809320038091F003813061F4109256
:10041000F003809120038093BB008091BC0083FD9A
:10042000F8CF85EC01C085EE8093BC008091F2038B
:100430008130E1F380914203861710F4609142030A
:10044000A1E2B3E0E0E0F3E080E0861721F09D91C7
:1004500091938F5FFACF089585ED8093BC008091D2
:10046000BC0084FDFCCF1092F20308950895089516
:100470000895E091F6038091F503E81730F4F0E079
:10048000E050FD4F808190E008958FEF9FEF089539
:100490009091F6038091F503981750F4E92FF0E05E
:1004A000E050FD4F208130E09F5F9093F60302C043
:1004B0002FEF3FEFC90108958091F50390E020915F
:1004C000F603821B91090895CF92DF92EF92FF927B
:1004D0000F931F93CF93DF93C0E010E0D0E08FE540
:1004E000E82EF12C80E00E9480092C2F30E0382B80
:1004F0002F3A91EC390721F481E08093160415C05E
:100500002E3A314C19F4109216040FC0D43038F042
:10051000143040F4F7013197F1F71F5FD0E0DF5F4F
:10052000C82FE0CF8FEF9FEF54C080911604C09189
:100530001004D0911104882361F18E010C5F1F4FCC
:1005400080E00E94800989930C171D07C9F7E0918C
:100550001004F0911104808180931404F180F092D2
:100560001504C280D380EE2ECE2FDF2F00E010E0E6
:100570008C2F8E198F1538F480E00E9480098993A2
:10058000080F111DF5CFC016D10609F580E090E0E7
:1005900020C080E00E948009888380E00E9480095A
:1005A0008983E0911004F0911104808180931404F8
:1005B0001181109315040E2FCE2FDF2F8C2F801B4F
:1005C000811720F780E00E9480098993F7CF8DEF93
:1005D0009FEFDF91CF911F910F91FF90EF90DF90F0
:1005E000CF9008950F931F93CF93DF93E091100462
:1005F000F09111048EEA8083E0911004F0911104CF
:1006000081EC8183E0911004F09111048091140435
:100610008283E0911004F09111048091150483838A
:10062000109115041C5F00911004C02F80911104DB
:10063000D82F8C2F801B811720F489910E9480096C
:10064000F8CF812F90E0DF91CF911F910F91089506
:1006500090E0FC01EA5DFD4F2491FC01E459FD4F5F
:100660008491882399F090E0880F991FFC01E45F42
:10067000FD4FA591B491FC01EE50FE4F85919491F0
:100680008FB7F894EC91E22BEC938FBF089590E034
:10069000FC01E455FE4F4491FC01EA5DFD4F2491BD
:1006A000FC01E459FD4F9491992309F466C0442359
:1006B00009F455C050E0FA013197E231F10508F034
:1006C0004EC08827EE58FF4F8F4F0C94D60D809167
:1006D00080008F7707C0809180008F7D03C080915C
:1006E0008000877F809380003AC084B58F7702C0F6
:1006F00084B58F7D84BD33C08091B0008F7703C0F7
:100700008091B0008F7D8093B00029C080919000CF
:100710008F7707C0809190008F7D03C080919000FB
:10072000877F809390001BC08091A0008F7707C0C7
:100730008091A0008F7D03C08091A000877F80936F
:10074000A0000DC0809120018F7707C0809120010B
:100750008F7D03C080912001877F80932001E92F46
:10076000F0E0EE0FFF1FEE50FE4FA591B4918FB752
:10077000F894EC91E22BEC938FBF08951F93CF93E5
:10078000DF93162FC7E1D4E09FA521E020939C02C0
:10079000909344031092F4031092F303A8A9B9A90B
:1007A000ED91FC9111970190F081E02D682FCD0122
:1007B000199588A999A9DC01ED91FC910190F0812E
:1007C000E02D612F199581E00E948E0181E0DF917B
:1007D000CF911F910895CF93DF93C7E1D4E08FA508
:1007E00091E090939C02809344031092F403109242
:1007F000F30388A999A9DC01ED91FC910190F081A6
:10080000E02D60E0199581E00E948E0161E08FA5E6
:100810000E94EA011092F6038093F50388A999A932
:10082000DC01ED91FC910284F385E02D1995DF91B7
:10083000CF910895009769F0FC0101900020E9F73D
:100840003197AF01481B590BBC018AE493E00C942B
:10085000510680E090E00895AF92BF92CF92DF9270
:10086000EF92FF920F931F93CF93DF9300D000D0AE
:10087000CDB7DEB77C016B018CE0D7011D928A9564
:10088000E9F78E010F5F1F4F86E0F80111928A95FC
:10089000E9F7DB0113968C91139791E090939C02FA
:1008A000809344031092F4031092F30314968D91F5
:1008B0009C911597DC01ED91FC910190F081E02D68
:1008C0006AE1199581E00E948E0166E0F60183815C
:1008D0000E94EA011092F6038093F5035E01F7E0AF
:1008E000AF0EB11CD60114968D919C911597DC0129
:1008F000ED91FC910284F385E02D1995F801819327
:100900008F01EA15FB0571F7CB80DC800D811E811C
:1009100069817A81072E000C880B990B0E94160EB4
:1009200020E030E040E85DE30E947A0ED7016D934D
:100930007D938D939C931397B601DD0C880B990BD7
:100940000E94160E20E030E040E85DE30E947A0E3F
:10095000F7016483758386839783B801110F880B31
:10096000990B0E94160E20E030E040E85DE30E9403
:100970007A0ED70118966D937D938D939C931B9758
:10098000C70126960FB6F894DEBF0FBECDBFDF912C
:10099000CF911F910F91FF90EF90DF90CF90BF907C
:1009A000AF9008951F920F920FB60F9211240BB6BD
:1009B0000F922F933F934F935F936F937F938F93F8
:1009C0009F93AF93BF93EF93FF938091B900887F7C
:1009D000803609F49CC068F5883209F45BC090F455
:1009E000803109F454C038F4882309F4F6C0883003
:1009F00009F44DC0F6C0883109F44CC0803209F4C6
:100A00005DC0EFC0803409F468C048F4803309F455
:100A100055C0883309F0E5C080934303D8C08035C2
:100A200009F44FC0883509F45DC0883409F0D9C095
:100A3000D6C0883909F4C7C0A8F4883709F467C05C
:100A400038F4883609F463C0803709F460C0C9C03F
:100A5000883809F4B8C0803909F45FC0803809F0DB
:100A6000C0C05BC0803B09F486C038F4803A09F40A
:100A700066C0883A09F47FC0B4C0803C09F4A7C0BE
:100A8000883C09F4A4C0883B09F48AC0AAC08091BC
:100A9000200310C09091420380914103981770F594
:100AA000E091420381E08E0F80934203F0E0EF5D1E
:100AB000FC4F80818093BB0085EC86C0809343030C
:100AC0008EC0E091420381E08E0F809342038091BB
:100AD000BB00F0E0EF5DFC4F80839091420380917A
:100AE00041036EC0E091420381E08E0F8093420388
:100AF0008091BB00F0E0EF5DFC4F80838091F103BB
:100B000081116DC081E08093F00384EA61C083E0CD
:100B10008093F2031092FF02CFCF8091FF028032C8
:100B200008F051C0E091FF0281E08E0F8093FF0238
:100B30008091BB00F0E0E152FD4F8083BDCF85EC9A
:100B40008093BC001092F2038091FF02803230F457
:100B5000E091FF02F0E0E152FD4F10826091FF0250
:100B600070E0E091EC03F091ED038FED92E01995C8
:100B70001092FF0236C084E08093F2031092DE02EE
:100B80001092DD02E091EE03F091EF031995809150
:100B9000DD02811105C081E08093DD021092BD026B
:100BA000E091DE0281E08E0F8093DE02F0E0E354FC
:100BB000FD4F80818093BB009091DE028091DD0229
:100BC000981708F479CF85E88093BC000AC085ECBB
:100BD0008093BC001092F20304C0109243030E9461
:100BE0002C02FF91EF91BF91AF919F918F917F91D7
:100BF0006F915F914F913F912F910F900BBE0F908E
:100C00000FBE0F901F9018954091DD02262F30E007
:100C1000240F311D21323105DCF42091F203243000
:100C2000C9F4FC0180E090E0861758F43091DD02B1
:100C30002191DC01A354BD4FA30FB11D2C9301964C
:100C4000F3CF8091DD02680F6093DD0280E00895AC
:100C500081E0089582E008953FB7F89480914603BB
:100C600090914703A0914803B091490326B5A89BF2
:100C700005C02F3F19F00196A11DB11D3FBFBA2F2E
:100C8000A92F982F8827820F911DA11DB11DBC018E
:100C9000CD0142E0660F771F881F991F4A95D1F753
:100CA0000895CF92DF92EF92FF920F931F93CF930D
:100CB000DF936C017A018B01C0E0D0E0CE15DF0537
:100CC00081F0D8016D918D01D601ED91FC910190DB
:100CD000F081E02DC6011995892B11F02196EECFF8
:100CE0007E01C701DF91CF911F910F91FF90EF908F
:100CF000DF90CF900895089580E090E00895FC0182
:100D0000538D448D252F30E0842F90E0821B930B70
:100D1000541710F0CF96089501970895FC01918D16
:100D2000828D981761F0828DDF01A80FB11D5D964D
:100D30008C91928D9F5F9F73928F90E008958FEFBB
:100D40009FEF0895FC01918D828D981731F0828D6F
:100D5000E80FF11D858D90E008958FEF9FEF0895C6
:100D6000FC01918D228D892F90E0805C9F4F821B2A
:100D700091098F73992708958AE493E00E94B00641
:100D800021E0892B09F420E0822F0895FC01848D55
:100D9000DF01A80FB11DA35ABF4F2C91848D90E0A5
:100DA00001968F739927848FA689B7892C93A08980
:100DB000B1898C91837080648C93938D848D98130A
:100DC00006C00288F389E02D80818F7D808308959D
:100DD000EF92FF920F931F93CF93DF93EC0181E08B
:100DE000888F9B8D8C8D981305C0E889F989808147
:100DF00085FD26C0F62E0B8D10E00F5F1F4F0F7381
:100E00001127E02E8C8DE8120CC00FB607FCFACF2C
:100E1000E889F989808185FFF5CFCE010E94C60659
:100E2000F1CF8B8DFE01E80FF11DE35AFF4FF082E9
:100E30009FB7F8940B8FEA89FB89808180620AC092
:100E40009FB7F894EE89FF896083E889F9898081EA
:100E50008370806480839FBF81E090E0DF91CF91B9
:100E60001F910F91FF90EF900895CF93DF93EC01C6
:100E7000888D8823C9F0EA89FB89808185FD05C0BA
:100E8000A889B9898C9186FD0FC00FB607FCF5CFF4
:100E9000808185FFF2CFA889B9898C9185FFEDCF3C
:100EA000CE010E94C606E7CFDF91CF91089580E082
:100EB00090E0892B21F00E94BC06811125C080E0C2
:100EC00090E0892B41F080E090E0892B21F00E9496
:100ED000000081111CC080E090E0892B41F080E08F
:100EE00090E0892B21F00E940000811113C080E066
:100EF00090E0892BA1F080E090E0892B81F00E94A6
:100F0000000081110AC008950E940000D8CF0E94FD
:100F10000000E1CF0E940000EACF0C940000089589
:100F20000895CF92DF92EF92FF920F931F93CF938A
:100F3000DF937C01CB018A0120919C02222389F05E
:100F4000EB016B01C40ED51ECC15DD0569F069916E
:100F5000D701ED91FC910190F081E02DC701199529
:100F6000F3CF642F0E940406C801DF91CF911F9137
:100F70000F91FF90EF90DF90CF900895CF93DF9384
:100F80001F92CDB7DEB7698320919C022223D1F056
:100F90002091F303203240F021E030E0FC01338364
:100FA000228380E090E015C08091F403E82FF0E008
:100FB000E356FD4F998190838F5F8093F403809374
:100FC000F30305C061E0CE0101960E94040681E0B2
:100FD00090E00F90DF91CF9108950E9430100F9311
:100FE0001F93CF93DF93CDB7DEB72C970FB6F8944E
:100FF000DEBF0FBECDBF8B0124E2FB0111922A950B
:10100000E9F744E250E060E070E0F801408351838A
:1010100062837383FC014681578160857185F80185
:10102000448355836683778343E050E060E070E05B
:1010300040875187628773872FB7F8944091E70301
:101040005091E8036091E9037091EA032FBF408B50
:10105000518B628B738BBC01CE0101960E942C04D4
:1010600089819A81AB81BC81F801848B958BA68B99
:10107000B78B8D819E81AF81B885808F918FA28F34
:10108000B38F89859A85AB85BC85848F958FA68F14
:10109000B78F81E02C960FB6F894DEBF0FBECDBFA0
:1010A000DF91CF911F910F9108950F931F93CF93CD
:1010B000DF938C01EB0188E2FB0111928A95E9F73D
:1010C0004BE050E062E972E0CE010E9435101B86D1
:1010D00081E090E0A0E0B0E08C879D87AE87BF877D
:1010E000F80186819781A085B185888B998BAA8B21
:1010F000BB8B83E090E0A0E0B0E08C8B9D8BAE8B4F
:10110000BF8B1CA21DA21EA21FA2188E198E1A8EA2
:101110001B8E1C8E1D8E1E8E1F8E8AE097EDA3E205
:10112000BCE388A399A3AAA3BBA3DF91CF911F918E
:101130000F9108950C94A70F8F929F92AF92BF9238
:10114000CF92DF92EF92FF926B017C010E942C06FE
:101150004B015C01C114D104E104F104F1F00E94DF
:101160002C06DC01CB0188199909AA09BB09883E24
:101170009340A105B10570F321E0C21AD108E1083E
:10118000F10888EE880E83E0981EA11CB11CC114E2
:10119000D104E104F10419F7DDCFFF90EF90DF9067
:1011A000CF90BF90AF909F908F9008951F920F9215
:1011B0000FB60F9211242F933F938F939F93AF936A
:1011C000BF938091E7039091E803A091E903B09168
:1011D000EA033091450323E0230F2D3720F40196D5
:1011E000A11DB11D05C026E8230F0296A11DB11D4A
:1011F000209345038093E7039093E803A093E903CA
:10120000B093EA038091460390914703A09148036D
:10121000B09149030196A11DB11D8093460390939F
:101220004703A0934803B0934903BF91AF919F91A7
:101230008F913F912F910F900FBE0F901F90189597
:101240001F920F920FB60F9211240BB60F922F938D
:101250003F934F935F936F937F938F939F93AF933E
:10126000BF93EF93FF938AE493E00E94C606FF9139
:10127000EF91BF91AF919F918F917F916F915F910E
:101280004F913F912F910F900BBE0F900FBE0F907B
:101290001F9018951F920F920FB60F9211240BB644
:1012A0000F922F938F939F93EF93FF93E0915A03A5
:1012B000F0915B038081E0916003F091610382FD16
:1012C00012C09081809163038F5F8F7320916403BC
:1012D000821751F0E0916303F0E0E65BFC4F958FDD
:1012E0008093630301C08081FF91EF919F918F9163
:1012F0002F910F900BBE0F900FBE0F901F9018955F
:101300008EBD00000DB407FEFDCF8EB50895089583
:10131000CF93DF93CDB7DEB7A1970FB6F894DEBFBA
:101320000FBECDBF789484B5826084BD84B58160E2
:1013300084BD85B5826085BD85B5816085BD8091A0
:101340006E00816080936E00109281008091810018
:101350008260809381008091810081608093810010
:10136000809180008160809380008091B1008460D2
:101370008093B1008091B00081608093B000809133
:1013800091008260809391008091910081608093B0
:101390009100809190008160809390008091A100E5
:1013A00082608093A1008091A10081608093A10060
:1013B0008091A00081608093A000809121018260D3
:1013C000809321018091210181608093210180918E
:1013D000200181608093200180917A008460809355
:1013E0007A0080917A00826080937A0080917A00FE
:1013F000816080937A0080917A00806880937A007F
:101400001092C100E0915A03F0915B0382E0808367
:10141000E0915603F09157031082E0915803F09148
:1014200059038FEC808310926203E0915E03F09188
:101430005F0386E08083E0915C03F0915D0380812F
:1014400080618083E0915C03F0915D03808188601E
:101450008083E0915C03F0915D03808180688083EC
:10146000E0915C03F0915D0380818F7D80838AE051
:10147000882E912CA12CB12C63E474E0CE0101964E
:101480000E942C0469817A818B819C810E94DE0DEF
:10149000653B710514F06856714070935004609379
:1014A0004F04C0904F04D09050040D2C000CEE0857
:1014B000FF08F7FE20C06DE28AE493E00E94E80690
:1014C00022273327A9012C193D094E095F0919A2CA
:1014D000CE0181967C01CA01B901A50194010E9447
:1014E000B40D605DF70162937F012115310541055F
:1014F000510589F715C0A701960119A2CE01819661
:101500007C01CA01B901A50194010E94B40D605D7E
:10151000F70162937F01211531054105510589F7D6
:10152000C7010E941A0442E050E069E972E08AE4CF
:1015300093E00E9451060E9457079ECF80911004AD
:10154000909111040C94A70FAF92BF92CF92DF92AB
:10155000EF92FF920F931F93CF93DF931092550456
:101560001092540488EE93E0A0E0B0E0809356041B
:1015700090935704A0935804B09359042EE232E09C
:10158000309353042093520410924D0310924C0355
:1015900080934E0390934F03A0935003B093510355
:1015A00080E492E090934B0380934A0385EC90E0B3
:1015B000909357038093560384EC90E090935903E3
:1015C0008093580380EC90E090935B0380935A03E0
:1015D00081EC90E090935D0380935C0382EC90E05B
:1015E00090935F0380935E0386EC90E09093610399
:1015F000809360031092630310926403109265035A
:101600001092660384E2E6E0F2E0AEEAB4E0019014
:101610000D928A95E1F70FE812E09CE8A92E92E07E
:10162000B92E29E8E22E22E0F22ECEEED4E032E905
:10163000C32E32E0D32ED8012D918D01F501A19159
:101640005F01F70181917F0190E0FC018081888337
:10165000B0E09C919983E22FF0E090819A831B8205
:101660000E94280389810E9428038A810E942803FE
:101670002596C016D106F9F61092DE041092DF040A
:101680001092E0041092E1041092E2041092E3043C
:101690001092E4041092E5041092E6041092E7041C
:1016A0001092E8041092E9041092EA041092EB04FC
:1016B0001092EC041092ED041092D2041092D30414
:1016C0001092D4041092D5041092D6041092D7042C
:1016D0001092D8041092D9041092DA041092DB040C
:1016E0001092DC041092DD04A4E6B4E084E994E0F6
:1016F000FD01128E11A210A2168E158E148E138E5D
:10170000178E38968E179F07A1F7EDE7F2E041E7B5
:1017100052E02BE632E080E794E069E872E0019164
:101720001191EA01E990F990AE01E901D9909E0189
:10173000CD2DD0E0C8815A96CC935A97E701E88026
:10174000F9809196FC92EE929097E80108811981B8
:101750005E961C930E935D975C961C921E925B970F
:101760005F961C925F97EC011992CE0118966E1746
:101770007F07A9F6109278041092770410927604ED
:1017800083E592E0909344048093430487E390E0E0
:10179000A0E0B0E08093490490934A04A0934B04E6
:1017A000B0934C0488E28093460482E594E09093E1
:1017B0004804809347041092F6031092F5031092A8
:1017C000F4031092F3031092F20381E08093F1038B
:1017D0001092F00384E10E94470385E10E944703D1
:1017E0008091B9008E7F8093B9008091B9008D7F80
:1017F0008093B90088E48093B80085E48093BC00AE
:1018000086E392E09093EF038093EE0387E392E008
:101810009093ED038093EC030E94EB03803AC9F4AC
:1018200010924E0410924D0460E08DE390E00E940F
:10183000BE036EE170E080E090E00E949C0860E2F0
:101840008FE390E00E94BE036EE170E080E090E0E4
:101850000CC068EE73E080E090E00E949C080E945B
:10186000EB03803A09F044C0DBCF0E949C080E9441
:10187000EB03803A29F06AE070E080E090E0F5CF79
:1018800062E370E080E090E00E949C0860E08EE3FC
:1018900090E00E94BE036AE070E080E090E00E9469
:1018A0009C0860E087E090E00E94BE0360E08FE368
:1018B00090E00E94BE036AE070E080E090E00E9449
:1018C0009C0888E090E090934E0480934D0468E07B
:1018D0008DE390E00E94BE036EE170E080E090E056
:1018E0000E949C0864E170E080E090E00E949C0807
:1018F0001092500410924F04109217041092180482
:101900001092190410921A0410921B0410921C04D5
:1019100010921D0410921E0410921F0410922004B5
:101920001092210410922204109223041092240495
:101930001092250410922604109227041092280475
:101940001092290410922A0410922B0410922C0455
:1019500010922D0410922E048AE097EDA3E2BCE3CE
:1019600080933B0490933C04A0933D04B0933E04C9
:1019700080E090E0A8ECB2E480933F0490934004B0
:10198000A0934104B093420410922F0410923004AB
:1019900010923104109232041092330410923404E5
:1019A00010923504109236041092370410923804C5
:1019B0001092390410923A0487EF93E09093010457
:1019C0008093000490930C0480930B0490930E0476
:1019D00080930D0484E091E00E940F0F9093110416
:1019E0008093100404969093130480931204109231
:1019F000FC031092FB031092FA031092F903109269
:101A0000F8031092F703CFB7F89480915104811135
:101A100023C0E1EAF2E08491EBE5F2E09491E82F53
:101A2000F0E0EE0FFF1FE45FFD4FA591B491EC9144
:101A3000E92319F485E30E94470385E30E94280304
:101A40008CB580618CBD8CB580648CBD84E30E94B4
:101A5000280383E30E942803809151048F5F8093C1
:101A60005104CFBF8DE58CBD81E08DBD8FB7F8945B
:101A7000C090E703D090E803E090E903F090EA0318
:101A80008FBF1EE0CBE1DEE42FB7F8948091E7032F
:101A90009091E803A091E903B091EA032FBF8C195C
:101AA0009D09AE09BF0988389341A105B10508F029
:101AB00044C010921504109314040E94F2020E9474
:101AC0006402892BB1F5809114048F3091F58091D7
:101AD0001004909111049093F8038093F703809180
:101AE000150487FD26C081E080931504E09112045F
:101AF000F091130410828CE0809314040E94F2028F
:101B00000E946402892BC9F4809114048D30A9F4D9
:101B1000E0911004F0911104808191819093FA0377
:101B20008093F903828193819093FC038093FB035C
:101B300004C0CE010197F1F7A7CF10925E04109276
:101B40005F0410926004109261041092620410927B
:101B50006304DF91CF911F910F91FF90EF90DF9081
:101B6000CF90BF90AF900895A1E21A2EAA1BBB1B85
:101B7000FD010DC0AA1FBB1FEE1FFF1FA217B30759
:101B8000E407F50720F0A21BB30BE40BF50B661F6F
:101B9000771F881F991F1A9469F760957095809533
:101BA00090959B01AC01BD01CF010895EE0FFF1F81
:101BB000881F8BBF0790F691E02D19940E94E50DC8
:101BC0006894B1110C94740E08950E94590E88F017
:101BD0009F5798F0B92F9927B751B0F0E1F0660FF1
:101BE000771F881F991F1AF0BA95C9F714C0B13032
:101BF00091F00E94730EB1E008950C94730E672F5C
:101C0000782F8827B85F39F0B93FCCF38695779560
:101C10006795B395D9F73EF4909580957095619549
:101C20007F4F8F4F9F4F0895E89409C097FB3EF474
:101C300090958095709561957F4F8F4F9F4F992319
:101C4000A9F0F92F96E9BB279395F6958795779597
:101C50006795B795F111F8CFFAF4BB0F11F460FF57
:101C60001BC06F5F7F4F8F4F9F4F16C0882311F0AF
:101C700096E911C0772321F09EE8872F762F05C0C3
:101C8000662371F096E8862F70E060E02AF09A955E
:101C9000660F771F881FDAF7880F9695879597F953
:101CA000089557FD9058440F551F59F05F3F71F04C
:101CB0004795880F97FB991F61F09F3F79F08795B3
:101CC0000895121613061406551FF2CF4695F1DF3C
:101CD00008C0161617061806991FF1CF86957105CC
:101CE000610508940895E894BB2766277727CB0100
:101CF00097F908950E948D0E0C94FE0E0E94F00E2E
:101D000038F00E94F70E20F0952311F00C94E70EA6
:101D10000C94ED0E11240C94740E0E94510E70F36D
:101D2000959FC1F3950F50E0551F629FF001729F80
:101D3000BB27F00DB11D639FAA27F00DB11DAA1F8F
:101D4000649F6627B00DA11D661F829F2227B00DDC
:101D5000A11D621F739FB00DA11D621F839FA00D67
:101D6000611D221F749F3327A00D611D231F849FB7
:101D7000600D211D822F762F6A2F11249F5750400E
:101D80009AF0F1F088234AF0EE0FFF1FBB1F661F89
:101D9000771F881F91505040A9F79E3F510580F052
:101DA0000C94E70E0C94740E5F3FE4F3983ED4F36A
:101DB000869577956795B795F795E7959F5FC1F7F6
:101DC000FE2B880F911D9695879597F9089597F9A1
:101DD0009F6780E870E060E008959FEF80EC0895D1
:101DE00000240A94161617061806090608950024FA
:101DF0000A9412161306140605060895092E039474
:101E0000000C11F4882352F0BB0F40F4BF2B11F4E7
:101E100060FF04C06F5F7F4F8F4F9F4F08950F93F8
:101E20001F93CF93DF938230910510F482E090E00E
:101E3000E091FF04F091000520E030E0A0E0B0E088
:101E4000309719F140815181028113814817590758
:101E5000C8F08417950769F4109731F012960C9327
:101E6000129713961C9327C00093FF04109300054C
:101E700022C02115310519F04217530718F49A01B1
:101E8000BD01EF01DF01F801DBCF21153105F9F0CC
:101E9000281B390B2430310580F48A819B81611520
:101EA000710521F0FB019383828304C090930005A8
:101EB0008093FF04FE01329644C0FE01E20FF31F3F
:101EC0008193919322503109398328833AC020911C
:101ED000FD043091FE04232B41F420910202309145
:101EE00003023093FE042093FD0420910002309100
:101EF00001022115310541F42DB73EB7409104028E
:101F000050910502241B350BE091FD04F091FE0475
:101F1000E217F307A0F42E1B3F0B2817390778F0C0
:101F2000AC014E5F5F4F2417350748F04E0F5F1F1F
:101F30005093FE044093FD048193919302C0E0E02E
:101F4000F0E0CF01DF91CF911F910F910895CF93D2
:101F5000DF93009709F481C0FC013297138212824B
:101F6000A091FF04B0910005109781F42081318188
:101F7000820F931F2091FD043091FE04281739072A
:101F800051F5F093FE04E093FD0467C0ED0120E0FD
:101F900030E0CE17DF0740F44A815B819E01411596
:101FA0005105F1F0EA01F5CFD383C283408151811D
:101FB000840F951FC817D90759F488819981840F18
:101FC000951F0296918380838A819B81938382836C
:101FD0002115310529F4F0930005E093FF043DC07D
:101FE000E901FB83EA8349915991C40FD51FEC178E
:101FF000FD0761F480819181840F951F0296E901AC
:1020000099838883828193819B838A83E0E0F0E0D7
:1020100012968D919C911397009719F0FD01DC01A8
:10202000F7CF8D919C9111979D012E5F3F4F820FAD
:10203000931F2091FD043091FE042817390769F49D
:10204000309729F4109200051092FF0402C0138209
:102050001282B093FE04A093FD04DF91CF91089506
:1020600081E090E0F8940C944410FB01DC014150B5
:10207000504048F001900D920020C9F701C01D9218
:1020800041505040E0F7089511E0CAE5D1E000E08A
:1020900006C0802FFE010E94D60D2196011DCB3572
:0C20A000D10780E00807A9F7F894FFCFF3
:1020AC0000000105200052B85E3F0000003F000018
:1020BC00803F00000000000080BF0000803F52B84D
:1020CC005EBF0000003F0000803F00000000BE0724
:1020DC0091077C0638025C024802390200000000BD
:1020EC00E80651067F063507B0068E06A2060000EC
:1020FC0000000087099A089007EF075508000000B8
:10210C0000000000009007ED07ED07363738393A2C
:10211C003B1E005A009600D2000E014A01200320FB
:10212C00032003200320032003040D07030C0602E5
:0C213C000B05424E4F303535000D0A00F7
:00000001FF
