:100000000C94E3000C9414010C9414010C9414014E
:100010000C9414010C9414010C9414010C9414010C
:100020000C9414010C9414010C9414010C941401FC
:100030000C9414010C9414010C9414010C941401EC
:100040000C9414010C9414010C9414010C941401DC
:100050000C9414010C9414010C9414010C94890256
:100060000C9414010C94FD020C94D3020C94140112
:100070000C9414010C9414010C9414010C941401AC
:100080000C9414010C9414010C9414010C9414019C
:100090000C9414010C9414010C9414010C9414018C
:1000A0000C9414010C9414010C9414010C9414017C
:1000B0000C9414010C9414010C9414010C9414016C
:1000C0000C9414010C9414010C9414010C9414015C
:1000D0000C9414010C9414010C9414010C9414014C
:1000E0000C9414010C9433030C9476010C94990134
:1000F0000C94A7010C9448010C942C020C948501DB
:100100000C94DF0100002200250028002B002E00A7
:100110003100340002010000050108010B0100005C
:100120002100240027002A002D00300033000101A7
:100130000000040107010A01050505050705080877
:100140000808020202020A0A080804040404010161
:100150000101010101010303030303030303040776
:1001600007070C0C0C0C0C0C0C0C0202020206060D
:100170000606060606060B0B0B0B0B0B0B0B010200
:1001800010202008081020401020408002010201A9
:100190000804020101020408102040808040201061
:1001A00008040201800402018040201008040201BA
:1001B0000804020101020408102040800102040822
:1001C00010204080330311241FBECFEFD1E2DEBFE9
:1001D000CDBF00E00CBF12E0A0E0B2E0EAEAF9E037
:1001E00000E00BBF02C007900D92A435B107D9F70C
:1001F00023E0A4E5B2E001C01D92A339B207E1F704
:1002000010E0C3EED0E000E006C021970109802F86
:10021000FE010E94C604C23ED10780E00807A9F78C
:100220000E941E040C94D3040C94000090E0FC0186
:10023000E258FE4F2491FC01E85CFE4F8491882334
:1002400099F090E0880F991FFC01E25EFE4FA591A6
:10025000B491FC01EC5FFE4F859194918FB7F894B7
:10026000EC91E22BEC938FBF0895CF93DF93EC01D9
:10027000862F688349832A831B821C820E94160171
:1002800089810E9416018A81DF91CF910C94160119
:10029000CF92DF92EF92FF920F931F93CF93DF9352
:1002A0006C017A018B01C0E0D0E0CE15DF0581F052
:1002B000D8016D918D01D601ED91FC910190F081F5
:1002C000E02DC6011995892B11F02196EECF7E0104
:1002D000C701DF91CF911F910F91FF90EF90DF90B9
:1002E000CF900895089580E090E00895FC01538D2B
:1002F000448D252F30E0842F90E0821B930B541700
:1003000010F0CF96089501970895FC01918D828D8C
:10031000981761F0828DDF01A80FB11D5D968C9159
:10032000928D9F5F9F73928F90E008958FEF9FEF64
:100330000895FC01918D828D981731F0828DE80F20
:10034000F11D858D90E008958FEF9FEF0895FC01DA
:10035000918D228D892F90E0805C9F4F821B9109A7
:100360008F73992708958DE592E00E94A70121E0FF
:10037000892B09F420E0822F0895FC01848DDF0190
:10038000A80FB11DA35ABF4F2C91848D90E0019608
:100390008F739927848FA689B7892C93A089B189F7
:1003A0008C91837080648C93938D848D981306C098
:1003B0000288F389E02D80818F7D80830895EF92FC
:1003C000FF920F931F93CF93DF93EC0181E0888F0F
:1003D0009B8D8C8D981305C0E889F989808185FDF6
:1003E00026C0F62E0B8D10E00F5F1F4F0F731127E5
:1003F000E02E8C8DE8120CC00FB607FCFACFE8890E
:10040000F989808185FFF5CFCE010E94BD01F1CF32
:100410008B8DFE01E80FF11DE35AFF4FF0829FB76D
:10042000F8940B8FEA89FB89808180620AC09FB7AC
:10043000F894EE89FF896083E889F9898081837067
:10044000806480839FBF81E090E0DF91CF911F9116
:100450000F91FF90EF900895CF93DF93EC01888D7B
:100460008823C9F0EA89FB89808185FD05C0A889B8
:10047000B9898C9186FD0FC00FB607FCF5CF80813E
:1004800085FFF2CFA889B9898C9185FFEDCFCE0188
:100490000E94BD01E7CFDF91CF91089580E090E009
:1004A000892B21F00E94B301811125C080E090E0EA
:1004B000892B41F080E090E0892B21F00E94000020
:1004C00081111CC080E090E0892B41F080E090E039
:1004D000892B21F00E940000811113C080E090E080
:1004E000892BA1F080E090E0892B81F00E94000030
:1004F00081110AC008950E940000D8CF0E94000018
:10050000E1CF0E940000EACF0C94000008950E9401
:10051000CE041F920F920FB60F9211242F933F9388
:100520008F939F93AF93BF938091590290915A02FA
:10053000A0915B02B0915C023091580223E0230F3E
:100540002D3720F40196A11DB11D05C026E8230F0B
:100550000296A11DB11D20935802809359029093D9
:100560005A02A0935B02B0935C0280915402909176
:100570005502A0915602B09157020196A11DB11DDE
:100580008093540290935502A0935602B093570261
:10059000BF91AF919F918F913F912F910F900FBE7F
:1005A0000F901F9018951F920F920FB60F92112463
:1005B0000BB60F922F933F934F935F936F937F935D
:1005C0008F939F93AF93BF93EF93FF938DE592E04B
:1005D0000E94BD01FF91EF91BF91AF919F918F91CB
:1005E0007F916F915F914F913F912F910F900BBE33
:1005F0000F900FBE0F901F9018951F920F920FB67D
:100600000F9211240BB60F922F938F939F93EF931A
:10061000FF93E0916D02F0916E028081E091730290
:10062000F091740282FD12C09081809176028F5FFA
:100630008F7320917702821751F0E0917602F0E0FB
:10064000E35AFD4F958F8093760201C08081FF9120
:10065000EF919F918F912F910F900BBE0F900FBE36
:100660000F901F901895FF920F931F93CF93DF93D6
:100670001092600210925F0288EE93E0A0E0B0E07A
:100680008093610290936202A0936302B09364022C
:1006900088E292E090935E0280935D0285EC90E0A8
:1006A00090936A028093690284EC90E090936C02CC
:1006B00080936B0280EC90E090936E0280936D02C9
:1006C00081EC90E09093700280936F0282EC90E056
:1006D000909372028093710286EC90E09093740282
:1006E0008093730210927602109277021092780231
:1006F0001092790222E043E064E084E493E00E94F7
:1007000035012BE04CE06DE089E493E00E94350177
:1007100025E046E067E08EE493E00E94350184E244
:10072000E0E0F2E0A3E5B3E001900D928A95E1F7F5
:100730001092830310928403109285031092860313
:1007400010928703109288031092890310928A03F3
:1007500010928B0310928C0310928D0310928E03D3
:1007600010928F03109290031092910310929203B3
:1007700010927703109278031092790310927A0303
:1007800010927B0310927C0310927D0310927E03E3
:1007900010927F03109280031092810310928203C3
:1007A000AAEFB2E0FD011082178216821482138232
:1007B000128211821582389663E0EA32F60799F7C1
:1007C000E8E4F2E04CE352E026E332E086E393E033
:1007D00061917191EA0109911991AE01E901F990D4
:1007E0009E01CF2DD0E0C881CC93E801088119810A
:1007F00017961C930E931697EB01688179811496D6
:100800007C936E93139712961C921E9211971596D5
:100810001C921597EC011992CE011896D2E0E4359E
:10082000FD07B1F610923E0310923D0310923C0377
:10083000DF91CF911F910F91FF900895789484B527
:10084000826084BD84B5816084BD85B5826085BDCC
:1008500085B5816085BD80916E00816080936E005A
:10086000109281008091810082608093810080914C
:1008700081008160809381008091800081608093FD
:1008800080008091B10084608093B1008091B000BD
:1008900081608093B000809191008260809391008C
:1008A000809191008160809391008091900081609F
:1008B000809390008091A10082608093A10080913C
:1008C000A10081608093A1008091A000816080934D
:1008D000A0008091210182608093210180912101FB
:1008E00081608093210180912001816080932001AB
:1008F00080917A00846080937A0080917A0082608F
:1009000080937A0080917A00816080937A00809150
:100910007A00806880937A001092C100E0916D02A5
:10092000F0916E0282E08083E0916902F0916A02A8
:100930001082E0916B02F0916C028FEC8083109238
:100940007502E0917102F091720286E08083E0917D
:100950006F02F0917002808180618083E0916F026C
:10096000F0917002808188608083E0916F02F09145
:100970007002808180688083E0916F02F091700244
:1009800080818F7D80830E944E02FDCFEE0FFF1F7E
:10099000881F8BBF0790F691E02D199481E090E0BD
:0A09A000F8940C94D304F894FFCFF0
:1009AA0052B85E3F0000003F0000803F0000000098
:1009BA00000080BF0000803F52B85EBF0000003FC9
:1009CA000000803F00000000DF01480176012C0290
:1009DA00A70185019901363738393A3B1E005A007A
:1009EA009600D2000E014A012003200320032003AF
:0409FA0020032003B3
:00000001FF
