:100000000C9456010C9487010C9487010C94870181
:100010000C9487010C9487010C9487010C94870140
:100020000C9487010C9487010C9487010C94870130
:100030000C9487010C9487010C9487010C94870120
:100040000C9487010C9487010C9487010C94870110
:100050000C9487010C9487010C9487010C948306FF
:100060000C9487010C94F7060C94CD060C94870130
:100070000C9487010C9487010C9487010C948701E0
:100080000C9487010C9487010C9487010C948701D0
:100090000C9487010C9487010C9487010C942D0714
:1000A0000C9487010C9487010C9487010C948701B0
:1000B0000C9487010C9487010C9487010C948701A0
:1000C0000C9487010C9487010C9487010C94870190
:1000D0000C9487010C9487010C9487010C94870180
:1000E0000C94870182028502740278027C02BC02B1
:1000F00089028D02930297029B02A102A502A90226
:10010000BC02AF02B302B7020C942A030C9474022F
:100110000C9478020C94B7020C94C5040C9456030A
:100120000C948D020C9487030C94A5020C94BC02D1
:100130000C94F2040C94BD040C9481060C94A90256
:100140000C9499040C9425050C9458050C94890280
:100150000C9479030C94BF030C9465030C9426054E
:100160000C94A9040C9497020C940C040C947C023B
:100170000C9493020C9482020C94AF020C942C0306
:100180000C947E080C9485020C9422050C94B30206
:100190000C94A1020C949B020C949A040C943C06BF
:1001A0000C942B0300000A0B02090C0D0E08070328
:1001B000040100000000000000000000000000003A
:1001C000000000000000000000000000000000002F
:1001D00012111000000000000000000000000000EC
:1001E00000000000000000000000000022002500C8
:1001F00028002B002E003100340002010000050110
:1002000008010B0100002100240027002A002D0016
:100210003000330001010000040107010A01050557
:100220000505070508080808020202020A0A08086C
:10023000040404040101010101010101030303039A
:1002400003030303040707070C0C0C0C0C0C0C0C29
:100250000202020206060606060606060B0B0B0B3A
:100260000B0B0B0B0102102020080810204010205F
:10027000408002010201080402010102040810206A
:100280004080804020100804020180040201804068
:1002900020100804020108040201010204081020D1
:1002A000408001020408102040807E0811241FBEF7
:1002B000CFEFD1E2DEBFCDBF00E00CBF12E0A0E087
:1002C000B2E0E0E3FBE100E00BBF02C007900D925B
:1002D000AA38B107D9F724E0AAE8B2E001C01D921C
:1002E000A93CB207E1F711E0C6E5D1E000E006C0A5
:1002F00021970109802FFE010E945E0BC535D107B1
:1003000080E00807A9F70E940F0A0C94960D0C9440
:100310000000282F30914603313208F04AC0809106
:1003200022038111FCCF9091450342E040932203C8
:10033000209321032FEF2093200310921F0330936B
:100340001E03E5E2F3E0AEEFB2E020E0321721F069
:1003500041914D932F5FFACF1092FD022091FD0243
:10036000990F922B9093FD029091FC02913061F4D1
:100370001092FC029091FD029093BB009091BC0002
:1003800093FDF8CF95EC01C095EE9093BC00909151
:1003900022039230E1F3909120039F3F79F0809106
:1003A0002003803241F080912003803331F084E0DB
:1003B00005C081E003C082E001C083E01092240305
:1003C000109246031092230308951F93CF93DF9357
:1003D000162FC0EFD3E09B8121E02093230390935D
:1003E00045031092240310924603AC81BD81ED9128
:1003F000FC9111970190F081E02D682FCD011995A6
:100400008C819D81DC01ED91FC910190F081E02DCA
:10041000612F199581E00E94890181E0DF91CF91E0
:100420001F910895909122039111FCCF91E0909338
:100430002203909321032FEF2093200310921F0398
:10044000260F20931E039093FD029091FD02880FCA
:10045000892B8093FD028091FC02813061F410921F
:10046000FC028091FD028093BB008091BC0083FD63
:10047000F8CF85EC01C085EE8093BC00809122030B
:100480008130E1F380911F03861710F460911F0300
:10049000AEEFB2E0ECEDF2E080E0861721F09D9146
:1004A00091938F5FFACF089590E0FC01EC55FE4FD9
:1004B0004491FC01EC59FD4F2491FC01E25EFD4F9B
:1004C0009491992309F466C0442309F455C050E07F
:1004D000FA013197E231F10508F04EC08827EE5855
:1004E000FF4F8F4F0C945E0B809180008F7707C079
:1004F000809180008F7D03C080918000877F8093F2
:1005000080003AC084B58F7702C084B58F7D84BDEA
:1005100033C08091B0008F7703C08091B0008F7D91
:100520008093B00029C0809190008F7707C08091A0
:1005300090008F7D03C080919000877F8093900012
:100540001BC08091A0008F7707C08091A0008F7D95
:1005500003C08091A000877F8093A0000DC0809190
:1005600020018F7707C0809120018F7D03C080918B
:100570002001877F80932001E92FF0E0EE0FFF1F1D
:10058000E651FE4FA591B4918FB7F894EC91E22B10
:10059000EC938FBF08953FB7F8948091D602909165
:1005A000D702A091D802B091D90226B5A89B05C068
:1005B0002F3F19F00196A11DB11D3FBFBA2FA92FE2
:1005C000982F8827820F911DA11DB11DBC01CD015F
:1005D00042E0660F771F881F991F4A95D1F708954B
:1005E0008F929F92AF92BF92CF92DF92EF92FF9243
:1005F0006B017C010E94CB024B015C01C114D10450
:10060000E104F104F1F00E94CB02DC01CB01881976
:100610009909AA09BB09883E9340A105B10570F369
:1006200021E0C21AD108E108F10888EE880E83E0C3
:10063000981EA11CB11CC114D104E104F10419F7E6
:10064000DDCFFF90EF90DF90CF90BF90AF909F9065
:100650008F90089508950895CF92DF92EF92FF92C0
:100660000F931F93CF93DF936C017A018B01C0E04E
:10067000D0E0CE15DF0581F0D8016D918D01D60156
:10068000ED91FC910190F081E02DC6011995892B27
:1006900011F02196EECF7E01C701DF91CF911F911E
:1006A0000F91FF90EF90DF90CF900895FC01538D54
:1006B000448D252F30E0842F90E0821B930B54173C
:1006C00010F0CF96089501970895FC01918D828DC9
:1006D000981761F0828DDF01A80FB11D5D968C9196
:1006E000928D9F5F9F73928F90E008958FEF9FEFA1
:1006F0000895FC01918D828D981731F0828DE80F5D
:10070000F11D858D90E008958FEF9FEF0895FC0116
:10071000918D228D892F90E0805C9F4F821B9109E3
:100720008F739927089587E493E00E94870321E05F
:10073000892B09F420E0822F0895FC01848DDF01CC
:10074000A80FB11DA35ABF4F2C91848D90E0019644
:100750008F739927848FA689B7892C93A089B18933
:100760008C91837080648C93938D848D981306C0D4
:100770000288F389E02D80818F7D80830895EF9238
:10078000FF920F931F93CF93DF93EC0181E0888F4B
:100790009B8D8C8D981305C0E889F989808185FD32
:1007A00026C0F62E0B8D10E00F5F1F4F0F73112721
:1007B000E02E8C8DE8120CC00FB607FCFACFE8894A
:1007C000F989808185FFF5CFCE010E949D03F1CF8D
:1007D0008B8DFE01E80FF11DE35AFF4FF0829FB7AA
:1007E000F8940B8FEA89FB89808180620AC09FB7E9
:1007F000F894EE89FF896083E889F98980818370A4
:10080000806480839FBF81E090E0DF91CF911F9152
:100810000F91FF90EF900895CF93DF93EC01888DB7
:100820008823C9F0EA89FB89808185FD05C0A889F4
:10083000B9898C9186FD0FC00FB607FCF5CF80817A
:1008400085FFF2CFA889B9898C9185FFEDCFCE01C4
:100850000E949D03E7CFDF91CF91089580E090E063
:10086000892B21F00E949303811125C080E090E044
:10087000892B41F080E090E0892B21F00E9400005C
:1008800081111CC080E090E0892B41F080E090E075
:10089000892B21F00E940000811113C080E090E0BC
:1008A000892BA1F080E090E0892B81F00E9400006C
:1008B00081110AC008950E940000D8CF0E94000054
:1008C000E1CF0E940000EACF0C940000089585ED6E
:1008D0008093BC008091BC0084FDFCCF1092220369
:1008E00008954091AA02262F30E0240F311D2132B5
:1008F0003105DCF4209122032430C9F4FC0180E0AE
:1009000090E0861758F43091AA022191DC01A65795
:10091000BD4FA30FB11D2C930196F3CF8091AA0276
:10092000680F6093AA0280E0089581E0089582E054
:1009300008950895E091DB028091DA02E81730F41F
:10094000F0E0E452FD4F808190E008958FEF9FEF3B
:1009500008959091DB028091DA02981750F4E92F04
:10096000F0E0E452FD4F208130E09F5F9093DB0286
:1009700002C02FEF3FEFC90108958091DA0290E0A5
:100980002091DB02821B91090895CF92DF92EF92B2
:10099000FF920F931F93CF93DF937C01CB018A01CA
:1009A00020912303222389F0EB016B01C40ED51E95
:1009B000CC15DD0569F06991D701ED91FC910190AD
:1009C000F081E02DC7011995F3CF642F0E947104C7
:1009D000C801DF91CF911F910F91FF90EF90DF90B1
:1009E000CF900895CF93DF931F92CDB7DEB7698381
:1009F000209123032223D1F020914603203240F09E
:100A000021E030E0FC013383228380E090E015C0D8
:100A100080912403E82FF0E0EB5DFC4F99819083F7
:100A20008F5F809324038093460305C061E0CE016D
:100A300001960E94710481E090E00F90DF91CF91C8
:100A40000895089580E090E0089508950895CF9363
:100A5000DF93C0EFD3E08B8191E0909323038093E9
:100A6000450310922403109246038C819D81DC0182
:100A7000ED91FC910190F081E02D60E0199581E00D
:100A80000E94890161E08B810E9412021092DB02B8
:100A90008093DA028C819D81DC01ED91FC910284CE
:100AA000F385E02D1995DF91CF9108950E94820D75
:100AB0008F929F92AF92BF92CF92DF92EF92FF926E
:100AC0000F931F93CF93DF93CDB7DEB762970FB627
:100AD000F894DEBF0FBECDBF6C018B0184E2DB0159
:100AE0001D928A95E9F784E290E0A0E0B0E0FB0176
:100AF00080839183A283B383F60186819781A08549
:100B0000B185FB0184839583A683B78383E090E05E
:100B1000A0E0B0E080879187A287B3872FB7F894D1
:100B20008091D2029091D302A091D402B091D502CB
:100B30002FBF808B918BA28BB38BFE0131968CE003
:100B4000DF011D928A95E9F77E01BDE0EB0EF11CF5
:100B500086E0F70111928A95E9F7D60113968C91F8
:100B6000139791E0909323038093450310922403FD
:100B70001092460314968D919C911597DC01ED918E
:100B8000FC910190F081E02D6AE1199581E00E94CD
:100B9000890166E0F60183810E9412021092DB0255
:100BA0008093DA025E01F3E1AF0EB11CD601149618
:100BB0008D919C911597DC01ED91FC910284F38558
:100BC000E02D1995F70181937F01EA15FB0571F777
:100BD0006D857E85072E000C880B990B0E94680B93
:100BE00020E030E040E85DE30E94A30B4B015C0194
:100BF0006F857889072E000C880B990B0E94680B73
:100C000020E030E040E85DE30E94A30B6B017C0133
:100C100069897A89072E000C880B990B0E94680B52
:100C200020E030E040E85DE30E94A30BD801549639
:100C30008D929D92AD92BC925797F801C08ED18E45
:100C4000E28EF38E5C966D937D938D939C935F976C
:100C500081E062960FB6F894DEBF0FBECDBFDF9184
:100C6000CF911F910F91FF90EF90DF90CF90BF90A9
:100C7000AF909F908F9008950F931F93CF93DF9322
:100C80008C01EB0188E2FB0111928A95E9F74BE0B8
:100C900050E063E872E0CE010E94870D1B8681E080
:100CA00090E0A0E0B0E08C879D87AE87BF87F80119
:100CB00086819781A085B185888B998BAA8BBB8B08
:100CC00083E090E0A0E0B0E08C8B9D8BAE8BBF8B7F
:100CD0001CA21DA21EA21FA2188E198E1A8E1B8E78
:100CE0001C8E1D8E1E8E1F8E8AE097EDA3E2BCE344
:100CF00088A399A3AAA3BBA3DF91CF911F910F91C2
:100D000008950C94F90C1F920F920FB60F921124B4
:100D10002F933F938F939F93AF93BF938091D20272
:100D20009091D302A091D402B091D5023091D1021A
:100D300023E0230F2D3720F40196A11DB11D05C01E
:100D400026E8230F0296A11DB11D2093D1028093A6
:100D5000D2029093D302A093D402B093D502809193
:100D6000D6029091D702A091D802B091D9020196F3
:100D7000A11DB11D8093D6029093D702A093D802F3
:100D8000B093D902BF91AF919F918F913F912F91D5
:100D90000F900FBE0F901F9018951F920F920FB6D5
:100DA0000F9211240BB60F922F933F934F935F93A3
:100DB0006F937F938F939F93AF93BF93EF93FF9323
:100DC00087E493E00E949D03FF91EF91BF91AF9163
:100DD0009F918F917F916F915F914F913F912F9153
:100DE0000F900BBE0F900FBE0F901F9018951F9283
:100DF0000F920FB60F9211240BB60F922F938F9371
:100E00009F93EF93FF93E0915703F09158038081F4
:100E1000E0915D03F0915E0382FD12C090818091AC
:100E200060038F5F8F7320916103821751F0E0910F
:100E30006003F0E0E95BFC4F958F8093600301C095
:100E40008081FF91EF919F918F912F910F900BBE19
:100E50000F900FBE0F901F9018951F920F920FB614
:100E60000F9211240BB60F922F933F934F935F93E2
:100E70006F937F938F939F93AF93BF93EF93FF9362
:100E80008091B900887F803609F49CC068F588326B
:100E900009F45BC090F4803109F454C038F488231D
:100EA00009F4F6C0883009F44DC0F6C0883109F461
:100EB0004CC0803209F45DC0EFC0803409F468C0D2
:100EC00048F4803309F455C0883309F0E5C08093B5
:100ED0002003D8C0803509F44FC0883509F45DC0BF
:100EE000883409F0D9C0D6C0883909F4C7C0A8F43D
:100EF000883709F467C038F4883609F463C080374E
:100F000009F460C0C9C0883809F4B8C0803909F450
:100F10005FC0803809F0C0C05BC0803B09F486C068
:100F200038F4803A09F466C0883A09F47FC0B4C046
:100F3000803C09F4A7C0883C09F4A4C0883B09F4AC
:100F40008AC0AAC08091FD0210C090911F038091B9
:100F50001E03981770F5E0911F0381E08E0F8093B8
:100F60001F03F0E0E250FD4F80818093BB0085ECD1
:100F700086C0809320038EC0E0911F0381E08E0F16
:100F800080931F038091BB00F0E0E250FD4F80830F
:100F900090911F0380911E036EC0E0911F0381E0BA
:100FA0008E0F80931F038091BB00F0E0E250FD4F55
:100FB00080838091210381116DC081E08093FC02C8
:100FC00084EA61C083E0809322031092CC02CFCFE9
:100FD0008091CC02803208F051C0E091CC0281E0D7
:100FE0008E0F8093CC028091BB00F0E0E455FD4F62
:100FF0008083BDCF85EC8093BC001092220380914A
:10100000CC02803230F4E091CC02F0E0E455FD4FA8
:1010100010826091CC0270E0E091CD02F091CE029E
:101020008CEA92E019951092CC0236C084E080934D
:1010300022031092AB021092AA02E091CF02F0912B
:10104000D00219958091AA02811105C081E0809398
:10105000AA0210928A02E091AB0281E08E0F809387
:10106000AB02F0E0E657FD4F80818093BB0090918A
:10107000AB028091AA02981708F479CF85E8809393
:10108000BC000AC085EC8093BC001092220304C00F
:10109000109220030E946704FF91EF91BF91AF91DE
:1010A0009F918F917F916F915F914F913F912F9180
:1010B0000F900BBE0F900FBE0F901F90189590E0F1
:1010C000FC01EC59FD4F2491FC01E25EFD4F84913F
:1010D000882399F090E0880F991FFC01EC5FFD4F89
:1010E000A591B491FC01E651FE4F859194918FB783
:1010F000F894EC91E22BEC938FBF0895CF92DF929E
:10110000EF92FF920F931F93CF93DF9310924A03B6
:101110001092490388EE93E0A0E0B0E080934B0387
:1011200090934C03A0934D03B0934E032EE232E014
:10113000309348032093470325EC30E03093540369
:101140002093530324EC30E030935603209355034F
:1011500020EC30E0309358032093570321EC30E02B
:1011600030935A032093590322EC30E030935C0310
:1011700020935B0326EC30E030935E0320935D0305
:101180001092600310926103109262031092630345
:101190001092E7031092E6038093E8039093E9032B
:1011A000A093EA03B093EB0380E492E09093E5030D
:1011B0008093E40384E2E6E0F2E0A5E8B4E0019085
:1011C0000D928A95E1F700E812E08DE7C82E82E0E3
:1011D000D82E9AE7E92E92E0F92EC6E7D4E0F8017E
:1011E00091918F01F60121916F01F70181917F01AA
:1011F000888329839A831B821C820E945F088981CD
:101200000E945F088A810E945F082596F2E00338F9
:101210001F0729F71092B5041092B6041092B70474
:101220001092B8041092B9041092BA041092BB0440
:101230001092BC041092BD041092BE041092BF0420
:101240001092C0041092C1041092C2041092C30400
:101250001092C4041092A9041092AA041092AB0434
:101260001092AC041092AD041092AE041092AF0430
:101270001092B0041092B1041092B2041092B30410
:101280001092B404ACE2B4E08CE594E0FD0110826D
:101290001782168214821382128211821582389666
:1012A0008E179F07A1F7EEE6F2E042E652E02CE54A
:1012B00032E088E694E061917191EA010991199117
:1012C000AE01E901F9909E01CF2DD0E0C881CC9309
:1012D000E8010881198117961C930E931697EB016C
:1012E0006881798114967C936E93139712961C9261
:1012F0001E92119715961C921597EC011992CE012A
:101300001896D2E0EA37FD07B1F6109270041092F9
:101310006F0410926E041092FC031092FD03109261
:10132000FE031092FF031092000410920104109229
:101330000204109203041092040410920504109207
:1013400006041092070410920804109209041092E7
:101350000A0410920B0410920C0410920D041092C7
:101360000E0410920F0410921004109211041092A7
:101370001204109213048AE097EDA3E2BCE3809379
:10138000200490932104A0932204B093230480E0CE
:1013900090E0A8ECB2E48093240490932504A093F9
:1013A0002604B0932704109214041092150410928E
:1013B0001604109217041092180410921904109237
:1013C0001A0410921B0410921C0410921D04109217
:1013D0001E0410921F0482E592E09093F103809323
:1013E000F00387E390E0A0E0B0E08093F6039093F1
:1013F000F703A093F803B093F90388E28093F30313
:1014000084EE93E09093F5038093F403DF91CF9102
:101410001F910F91FF90EF90DF90CF9008957894F7
:1014200084B5826084BD84B5816084BD85B58260E9
:1014300085BD85B5816085BD80916E00816080939A
:101440006E00109281008091810082608093810003
:101450008091810081608093810080918000816013
:10146000809380008091B10084608093B10080916E
:10147000B00081608093B000809191008260809381
:101480009100809191008160809391008091900003
:101490008160809390008091A10082608093A10080
:1014A0008091A10081608093A1008091A000816063
:1014B0008093A0008091210182608093210180911E
:1014C00021018160809321018091200181608093BE
:1014D000200180917A00846080937A0080917A0064
:1014E000826080937A0080917A00816080937A0094
:1014F00080917A00806880937A001092C100E09118
:101500005703F091580382E08083E0915303F091F8
:1015100054031082E0915503F09156038FEC8083C1
:1015200010925F03E0915B03F0915C0386E080839F
:10153000E0915903F0915A03808180618083E091AA
:101540005903F0915A03808188608083E0915903A8
:10155000F0915A03808180688083E0915903F09173
:101560005A0380818F7D808380EF93E090932904DC
:10157000809328041092DB021092DA021092240366
:10158000109246031092220381E08093210310926F
:10159000FC0284E10E94540285E10E945402809181
:1015A000B9008E7F8093B9008091B9008D7F8093C0
:1015B000B90088E48093B80085E48093BC008AE297
:1015C00093E09093D0028093CF028BE293E09093CC
:1015D000CE028093CD020E942705803AC9F4109272
:1015E000FB031092FA0360E08DE390E00E94E501B6
:1015F0006EE170E080E090E00E94F00260E28FE334
:1016000090E00E94E5016EE170E080E090E00CC0A7
:1016100068EE73E080E090E00E94F0020E942705EF
:10162000803A09F044C0DBCF0E94F0020E942705F7
:10163000803A29F06AE070E080E090E0F5CF62E364
:1016400070E080E090E00E94F00260E08EE390E0C5
:101650000E94E5016AE070E080E090E00E94F00204
:1016600060E087E090E00E94E50160E08FE390E0B9
:101670000E94E5016AE070E080E090E00E94F002E4
:1016800088E090E09093FB038093FA0368E08DE399
:1016900090E00E94E5016EE170E080E090E00E9441
:1016A000F00264E170E080E090E00E94F0021092AD
:1016B0002B0410922A040E942E04FDCFEE0FFF1F70
:1016C000881F8BBF0790F691E02D1994E89409C00C
:1016D00097FB3EF490958095709561957F4F8F4F65
:1016E0009F4F9923A9F0F92F96E9BB279395F6957B
:1016F000879577956795B795F111F8CFFAF4BB0FF9
:1017000011F460FF1BC06F5F7F4F8F4F9F4F16C05C
:10171000882311F096E911C0772321F09EE8872FE6
:10172000762F05C0662371F096E8862F70E060E0A2
:101730002AF09A95660F771F881FDAF7880F96951B
:10174000879597F908950E94B60B0C94270C0E9478
:10175000190C38F00E94200C20F0952311F00C9405
:10176000100C0C94160C11240C945B0C0E94380C79
:1017700070F3959FC1F3950F50E0551F629FF001E4
:10178000729FBB27F00DB11D639FAA27F00DB11DFD
:10179000AA1F649F6627B00DA11D661F829F222786
:1017A000B00DA11D621F739FB00DA11D621F839F0D
:1017B000A00D611D221F749F3327A00D611D231FE3
:1017C000849F600D211D822F762F6A2F11249F5731
:1017D00050409AF0F1F088234AF0EE0FFF1FBB1F34
:1017E000661F771F881F91505040A9F79E3F5105F3
:1017F00080F00C94100C0C945B0C5F3FE4F3983E6B
:10180000D4F3869577956795B795F795E7959F5F9C
:10181000C1F7FE2B880F911D9695879597F908952E
:1018200097F99F6780E870E060E008959FEF80EC93
:10183000089500240A941616170618060906089536
:1018400000240A9412161306140605060895092E9C
:101850000394000C11F4882352F0BB0F40F4BF2B0B
:1018600011F460FF04C06F5F7F4F8F4F9F4F08954B
:1018700057FD9058440F551F59F05F3F71F0479541
:10188000880F97FB991F61F09F3F79F08795089526
:10189000121613061406551FF2CF4695F1DF08C045
:1018A000161617061806991FF1CF86957105610562
:1018B00008940895E894BB2766277727CB0197F90A
:1018C00008950F931F93CF93DF938230910510F407
:1018D00082E090E0E091C704F091C80420E030E09D
:1018E000A0E0B0E0309719F140815181028113816D
:1018F00048175907C8F08417950769F4109731F015
:1019000012960C93129713961C9327C00093C7044A
:101910001093C80422C02115310519F0421753074E
:1019200018F49A01BD01EF01DF01F801DBCF2115A9
:101930003105F9F0281B390B2430310580F48A81F8
:101940009B816115710521F0FB019383828304C0A3
:101950009093C8048093C704FE01329644C0FE01F0
:10196000E20FF31F81939193225031093983288329
:101970003AC02091C5043091C604232B41F4209134
:101980000202309103023093C6042093C5042091D3
:101990000002309101022115310541F42DB73EB707
:1019A0004091040250910502241B350BE091C504BF
:1019B000F091C604E217F307A0F42E1B3F0B281783
:1019C000390778F0AC014E5F5F4F2417350748F0B8
:1019D0004E0F5F1F5093C6044093C50481939193AB
:1019E00002C0E0E0F0E0CF01DF91CF911F910F91B5
:1019F0000895CF93DF93009709F481C0FC013297DB
:101A000013821282A091C704B091C804109781F488
:101A100020813181820F931F2091C5043091C6042B
:101A20002817390751F5F093C604E093C50467C041
:101A3000ED0120E030E0CE17DF0740F44A815B8102
:101A40009E0141155105F1F0EA01F5CFD383C28320
:101A500040815181840F951FC817D90759F4888197
:101A60009981840F951F0296918380838A819B813F
:101A7000938382832115310529F4F093C804E09300
:101A8000C7043DC0E901FB83EA8349915991C40F22
:101A9000D51FEC17FD0761F480819181840F951F9C
:101AA0000296E90199838883828193819B838A834B
:101AB000E0E0F0E012968D919C911397009719F059
:101AC000FD01DC01F7CF8D919C9111979D012E5F57
:101AD0003F4F820F931F2091C5043091C6042817F1
:101AE000390769F4309729F41092C8041092C7049A
:101AF00002C013821282B093C604A093C504DF9182
:101B0000CF91089581E090E0F8940C94960DFB013C
:101B1000DC014150504048F001900D920020C9F77F
:101B200001C01D9241505040E0F70895F894FFCF56
:101B30000000C904200052B85E3F0000003F0000D2
:101B4000803F00000000000080BF0000803F52B8CE
:101B50005EBF0000003F0000803F00000000BF03A8
:101B60002C0356030C04870365037903000000006F
:101B7000F204C50422059904BD04A9049A040000D6
:101B8000000025058106260558053C0636373839FC
:101B90003A3B1E005A009600D2000E014A01200373
:101BA00020032003200320032003040D07030C0659
:0A1BB000020B05424E4F30353500A0
:00000001FF
