:100000000C948C010C94BD010C94BD010C94BD01A9
:100010000C94BD010C94BD010C94BD010C94BD0168
:100020000C94BD010C94BD010C94BD010C94BD0158
:100030000C94BD010C94BD010C94BD010C94BD0148
:100040000C94BD010C94BD010C94BD010C94BD0138
:100050000C94BD010C94BD010C94BD010C941008CE
:100060000C94BD010C9484080C945A080C94BD01A6
:100070000C94BD010C94BD010C94BD010C94BD0108
:100080000C94BD010C94BD010C94BD010C94BD01F8
:100090000C94BD010C94BD010C94BD010C94CE03D5
:1000A0000C94BD010C94BD010C94BD010C94BD01D8
:1000B0000C94BD010C94BD010C94BD010C94BD01C8
:1000C0000C94BD010C94BD010C94BD010C94BD01B8
:1000D0000C94BD010C94BD010C94BD010C94BD01A8
:1000E0000C94BD012F05320521052505290569055B
:1000F00036053A054005440548054E0552055605A6
:1001000069055C0560056405CD0BD20BD70BE10BCF
:10011000EB0B640CF50BFD0B050C0F0C190C230CF1
:10012000320C3C0C640C460C500C5A0C0C945605CA
:100130000C94F4010C943A050C94FD0B0C944E05B0
:100140000C94A4070C94E10B0C94F50B0C94030293
:100150000C9464050C94C0060C94320C0C94BD06EF
:100160000C9436050C9460050C9452050C941702FF
:100170000C94CD0B0C942F050C94050C0C94F301EE
:100180000C940F0C0C94230C0C945A0C0C943C0CF7
:100190000C94E9070C9425050C94BB080C94C00141
:1001A0000C947E050C94D70B0C94CF050C9462062E
:1001B0000C94A9050C9421050C941F020C94BA0808
:1001C0000C94460C0C9429050C9469050C94BB0501
:1001D0000C945C050C9440050C9448050C94440563
:1001E0000C94EB0B0C94BF010C94500C0C944C022F
:1001F0000C94D20B0C94AC050C94190C0C941506B1
:100200000C9432050C94640C0C94DD050C94BE0621
:1002100000000A0B02090C0D0E0807030401000080
:1002200000000000000000000000000000000000CE
:10023000000000000000000000000000121110008B
:1002400000000000000000000000000000000000AE
:1002500000000000000000002200250028002B0004
:100260002E003100340002010000050108010B01DD
:1002700000002100240027002A002D003000330058
:1002800001010000040107010A0105050505070534
:1002900008080808020202020A0A08080404040402
:1002A000010101010101010103030303030303032E
:1002B000040707070C0C0C0C0C0C0C0C02020202BD
:1002C00006060606060606060B0B0B0B0B0B0B0BA6
:1002D0000102102020080810204010204080020158
:1002E000020108040201010204081020408080403D
:1002F000201008040201800402018040201008043C
:1003000002010804020101020408102040800102D9
:10031000040810204080BB0811241FBECFEFD1E29B
:10032000DEBFCDBF00E00CBF12E0A0E0B2E0E4E52C
:10033000FDE100E00BBF02C007900D92A839B107A4
:10034000D9F724E0A8E9B2E001C01D92A53DB207AB
:10035000E1F711E0CCE8D1E000E006C02197010907
:10036000802FFE010E94700CCB38D10780E0080777
:10037000A9F70E94F10A0C94A80E0C9400000895AD
:10038000089585ED8093BC008091BC0084FDFCCF76
:1003900010927104089540910404262F30E0240F38
:1003A000311D21323105DCF4209171042430C9F46F
:1003B000FC0180E090E0861758F43091040421910C
:1003C000DC01AC51BC4FA30FB11D2C930196F3CFB0
:1003D00080910404680F6093040480E0089581E034
:1003E000089582E008950895E0915A038091590399
:1003F000E81730F4F0E0E856FD4F808190E0089572
:100400008FEF9FEF089590915A03809159039817A9
:1004100050F4E92FF0E0E856FD4F208130E09F5F77
:1004200090935A0302C02FEF3FEFC90108958091C6
:10043000590390E020915A03821B91090895CF92AD
:10044000DF92EF92FF920F931F93CF93DF937C0184
:10045000CB018A012091B802222389F0EB016B01C4
:10046000C40ED51ECC15DD0569F06991D701ED915B
:10047000FC910190F081E02DC7011995F3CF642F15
:100480000E94CB01C801DF91CF911F910F91FF9086
:10049000EF90DF90CF900895CF93DF931F92CDB769
:1004A000DEB769832091B8022223D1F0209157034F
:1004B000203240F021E030E0FC013383228380E0F1
:1004C00090E015C080915803E82FF0E0E55BFB4F0A
:1004D000998190838F5F809358038093570305C061
:1004E00061E0CE0101960E94CB0181E090E00F9087
:1004F000DF91CF9108958F929F92AF92BF92CF924A
:10050000DF92EF92FF926B017C010E94EB074B019F
:100510005C01C114D104E104F104F1F00E94EB0785
:10052000DC01CB0188199909AA09BB09883E9340CF
:10053000A105B10570F321E0C21AD108E108F10864
:1005400088EE880E83E0981EA11CB11CC114D10452
:10055000E104F10419F7DDCFFF90EF90DF90CF9029
:10056000BF90AF909F908F900895282F30915703A0
:10057000313208F04AC0809171048111FCCF909112
:10058000B90242E040937104209370042FEF20934E
:100590004A041092490430934804EBE4F4E0A8E2E2
:1005A000B4E020E0321721F041914D932F5FFACF54
:1005B0001092270420912704990F922B90932704DF
:1005C00090916F04913061F410926F049091270420
:1005D0009093BB009091BC0093FDF8CF95EC01C0C7
:1005E00095EE9093BC00909171049230E1F390915C
:1005F0004A049F3F79F080914A04803241F0809113
:100600004A04803331F084E005C081E003C082E019
:1006100001C083E010925803109257031092B80261
:1006200008951F93CF93DF93162FCBE5D3E09B81E3
:1006300021E02093B8029093B902109258031092CF
:100640005703AC81BD81ED91FC9111970190F08130
:10065000E02D682FCD0119958C819D81DC01ED91F4
:10066000FC910190F081E02D612F199581E00E94AD
:10067000B50281E0DF91CF911F91089590917104AF
:100680009111FCCF91E090937104909370042FEF3F
:1006900020934A0410924904260F20934804909313
:1006A000270490912704880F892B80932704809139
:1006B0006F04813061F410926F048091270480935D
:1006C000BB008091BC0083FDF8CF85EC01C085EEB6
:1006D0008093BC00809171048130E1F380914904E2
:1006E000861710F460914904A8E2B4E0E8E9F2E06A
:1006F00080E0861721F09D9191938F5FFACF089546
:10070000CF93DF93CBE5D3E08B8191E09093B80258
:100710008093B90210925803109257038C819D81E7
:10072000DC01ED91FC910190F081E02D60E01995E4
:1007300081E00E94B50261E08B810E943E0310922D
:100740005A03809359038C819D81DC01ED91FC91CA
:100750000284F385E02D1995DF91CF91089590E003
:10076000FC01E053FD4F2491FC01E657FD4F8491BD
:10077000882399F090E0880F991FFC01E059FD4F04
:10078000A591B491FC01EA5AFD4F859194918FB7E0
:10079000F894EC91E22BEC938FBF08951F920F9287
:1007A0000FB60F9211240BB60F922F933F934F93D6
:1007B0005F936F937F938F939F93AF93BF93EF93C9
:1007C000FF938091B900887F803609F49CC068F55A
:1007D000883209F45BC090F4803109F454C038F4D5
:1007E000882309F4F6C0883009F44DC0F6C088317A
:1007F00009F44CC0803209F45DC0EFC0803409F4C4
:1008000068C048F4803309F455C0883309F0E5C066
:1008100080934A04D8C0803509F44FC0883509F464
:100820005DC0883409F0D9C0D6C0883909F4C7C082
:10083000A8F4883709F467C038F4883609F463C02F
:10084000803709F460C0C9C0883809F4B8C080395D
:1008500009F45FC0803809F0C0C05BC0803B09F478
:1008600086C038F4803A09F466C0883A09F47FC03B
:10087000B4C0803C09F4A7C0883C09F4A4C0883BFC
:1008800009F48AC0AAC08091270410C0909149043D
:1008900080914804981770F5E091490481E08E0F2B
:1008A00080934904F0E0E85DFB4F80818093BB00BA
:1008B00085EC86C080934A048EC0E091490481E0B3
:1008C0008E0F809349048091BB00F0E0E85DFB4F00
:1008D000808390914904809148046EC0E09149045E
:1008E00081E08E0F809349048091BB00F0E0E85DC9
:1008F000FB4F80838091700481116DC081E08093F3
:100900006F0484EA61C083E080937104109226042E
:10091000CFCF80912604803208F051C0E0912604A8
:1009200081E08E0F809326048091BB00F0E0EA5FA7
:10093000FB4F8083BDCF85EC8093BC001092710487
:1009400080912604803230F4E0912604F0E0EA5FE2
:10095000FB4F10826091260470E0E0916B04F091EF
:100960006C0486E094E019951092260436C084E069
:10097000809371041092050410920404E0916D04B8
:10098000F0916E04199580910404811105C081E0F5
:10099000809304041092E403E091050481E08E0F3B
:1009A00080930504F0E0EC51FC4F80818093BB0004
:1009B0009091050480910404981708F479CF85E894
:1009C0008093BC000AC085EC8093BC001092710437
:1009D00004C010924A040E94C101FF91EF91BF919F
:1009E000AF919F918F917F916F915F914F913F91C7
:1009F0002F910F900BBE0F900FBE0F901F90189568
:100A0000362F90E0FC01E05FFD4F4491FC01E05384
:100A1000FD4F2491FC01E657FD4F9491992309F471
:100A20006CC0442309F455C050E0FA013197E2311B
:100A3000F10508F04EC08827EE58FF4F8F4F0C94F9
:100A4000700C809180008F7707C0809180008F7D2F
:100A500003C080918000877F809380003AC084B576
:100A60008F7702C084B58F7D84BD33C08091B00084
:100A70008F7703C08091B0008F7D8093B00029C034
:100A8000809190008F7707C0809190008F7D03C088
:100A900080919000877F809390001BC08091A00080
:100AA0008F7707C08091A0008F7D03C08091A00048
:100AB000877F8093A0000DC0809120018F7707C0B1
:100AC000809120018F7D03C080912001877F8093DA
:100AD0002001E92FF0E0EE0FFF1FEA5AFD4FA5912C
:100AE000B4919FB7F894311104C08C9120952823BC
:100AF00002C0EC912E2B2C939FBF0895CF92DF92D2
:100B0000EF92FF920F931F93CF93DF936C017A01C3
:100B10008B01C0E0D0E0CE15DF0581F0D8016D91EA
:100B20008D01D601ED91FC910190F081E02DC6017F
:100B30001995892B11F02196EECF7E01C701DF9127
:100B4000CF911F910F91FF90EF90DF90CF9008957C
:100B5000089580E090E00895FC01538D448D252F89
:100B600030E0842F90E0821B930B541710F0CF9647
:100B7000089501970895FC01918D828D981761F079
:100B8000828DDF01A80FB11D5D968C91928D9F5FC4
:100B90009F73928F90E008958FEF9FEF0895FC016F
:100BA000918D828D981731F0828DE80FF11D858D22
:100BB00090E008958FEF9FEF0895FC01918D228DB5
:100BC000892F90E0805C9F4F821B91098F7399273A
:100BD00008958AEB92E00E94DD0521E0892B09F45B
:100BE00020E0822F0895FC01848DDF01A80FB11D44
:100BF000A35ABF4F2C91848D90E001968F73992753
:100C0000848FA689B7892C93A089B1898C91837030
:100C100080648C93938D848D981306C00288F38929
:100C2000E02D80818F7D80830895EF92FF920F9356
:100C30001F93CF93DF93EC0181E0888F9B8D8C8D88
:100C4000981305C0E889F989808185FD26C0F62EB4
:100C50000B8D10E00F5F1F4F0F731127E02E8C8D4F
:100C6000E8120CC00FB607FCFACFE889F989808139
:100C700085FFF5CFCE010E94F305F1CF8B8DFE01EC
:100C8000E80FF11DE35AFF4FF0829FB7F8940B8FE6
:100C9000EA89FB89808180620AC09FB7F894EE8957
:100CA000FF896083E889F98980818370806480830B
:100CB0009FBF81E090E0DF91CF911F910F91FF9056
:100CC000EF900895CF93DF93EC01888D8823C9F0CE
:100CD000EA89FB89808185FD05C0A889B9898C9145
:100CE00086FD0FC00FB607FCF5CF808185FFF2CFE0
:100CF000A889B9898C9185FFEDCFCE010E94F305BB
:100D0000E7CFDF91CF91089580E090E0892B21F02B
:100D10000E94E905811125C080E090E0892B41F017
:100D200080E090E0892B21F00E94000081111CC01E
:100D300080E090E0892B41F080E090E0892B21F069
:100D40000E940000811113C080E090E0892BA1F087
:100D500080E090E0892B81F00E94000081110AC0A0
:100D600008950E940000D8CF0E940000E1CF0E94A9
:100D70000000EACF0C940000089508950E94940E9C
:100D80008F929F92AF92BF92CF92DF92EF92FF929B
:100D90000F931F93CF93DF93CDB7DEB762970FB654
:100DA000F894DEBF0FBECDBF6C018B0184E2DB0186
:100DB0001D928A95E9F784E290E0A0E0B0E0FB01A3
:100DC00080839183A283B383F60186819781A08576
:100DD000B185FB0184839583A683B78383E090E08C
:100DE000A0E0B0E080879187A287B3872FB7F894FF
:100DF0008091C9049091CA04A091CB04B091CC0415
:100E00002FBF808B918BA28BB38BFE0131968CE030
:100E1000DF011D928A95E9F77E01BDE0EB0EF11C22
:100E200086E0F70111928A95E9F7D60113968C9125
:100E3000139791E09093B8028093B90210925803EF
:100E40001092570314968D919C911597DC01ED91AA
:100E5000FC910190F081E02D6AE1199581E00E94FA
:100E6000B50266E0F60183810E943E0310925A03A8
:100E7000809359035E01F3E1AF0EB11CD6011496C5
:100E80008D919C911597DC01ED91FC910284F38585
:100E9000E02D1995F70181937F01EA15FB0571F7A4
:100EA0006D857E85072E000C880B990B0E947A0CAD
:100EB00020E030E040E85DE30E94B50C4B015C01AE
:100EC0006F857889072E000C880B990B0E947A0C8D
:100ED00020E030E040E85DE30E94B50C6B017C014E
:100EE00069897A89072E000C880B990B0E947A0C6D
:100EF00020E030E040E85DE30E94B50CD801549654
:100F00008D929D92AD92BC925797F801C08ED18E72
:100F1000E28EF38E5C966D937D938D939C935F9799
:100F200081E062960FB6F894DEBF0FBECDBFDF91B1
:100F3000CF911F910F91FF90EF90DF90CF90BF90D6
:100F4000AF909F908F9008950F931F93CF93DF934F
:100F50008C01EB0188E2FB0111928A95E9F74BE0E5
:100F600050E061E972E0CE010E94990E1B8681E09B
:100F700090E0A0E0B0E08C879D87AE87BF87F80146
:100F800086819781A085B185888B998BAA8BBB8B35
:100F900083E090E0A0E0B0E08C8B9D8BAE8BBF8BAC
:100FA0001CA21DA21EA21FA2188E198E1A8E1B8EA5
:100FB0001C8E1D8E1E8E1F8E8AE097EDA3E2BCE371
:100FC00088A399A3AAA3BBA3DF91CF911F910F91EF
:100FD00008950C940B0E3FB7F8948091CD04909136
:100FE000CE04A091CF04B091D00426B5A89B05C033
:100FF0002F3F19F00196A11DB11D3FBFBA2FA92F98
:10100000982F8827820F911DA11DB11DBC01CD0114
:1010100042E0660F771F881F991F4A95D1F7089500
:101020001F920F920FB60F9211242F933F938F931D
:101030009F93AF93BF938091C9049091CA04A091EC
:10104000CB04B091CC043091C80423E0230F2D379A
:1010500020F40196A11DB11D05C026E8230F0296BC
:10106000A11DB11D2093C8048093C9049093CA04A4
:10107000A093CB04B093CC048091CD049091CE0486
:10108000A091CF04B091D0040196A11DB11D809311
:10109000CD049093CE04A093CF04B093D004BF911D
:1010A000AF919F918F913F912F910F900FBE0F9015
:1010B0001F9018951F920F920FB60F9211240BB626
:1010C0000F922F933F934F935F936F937F938F93E1
:1010D0009F93AF93BF93EF93FF938AEB92E00E94AD
:1010E000F305FF91EF91BF91AF919F918F917F9108
:1010F0006F915F914F913F912F910F900BBE0F9089
:101100000FBE0F901F9018951F920F920FB60F925F
:1011100011240BB60F922F938F939F93EF93FF930E
:10112000E091CA02F091CB028081E091D002F0916F
:10113000D10282FD12C090818091D3028F5F8F73A4
:101140002091D402821751F0E091D302F0E0E654EE
:10115000FD4F958F8093D30201C08081FF91EF9165
:101160009F918F912F910F900BBE0F900FBE0F90FC
:101170001F9018950895CF92DF92EF92FF920F93F0
:101180001F93CF93DF93109275041092740488EE2E
:1011900093E0A0E0B0E08093760490937704A0936E
:1011A0007804B09379042EE232E0309373042093F4
:1011B00072041092BD021092BC028093BE02909302
:1011C000BF02A093C002B093C10280E492E090936A
:1011D000BB028093BA0285EC90E09093C7028093A3
:1011E000C60284EC90E09093C9028093C80280EC20
:1011F00090E09093CB028093CA0281EC90E09093B0
:10120000CD028093CC0282EC90E09093CF02809349
:10121000CE0286EC90E09093D1028093D00210929F
:10122000D3021092D4021092D5021092D60284E218
:10123000E6E0F2E0A5E9B3E001900D928A95E1F7CE
:101240000EE812E08BE8C82E82E0D82E98E8E92E4E
:1012500092E0F92EC5EDD3E0F80191918F01F601EE
:1012600021916F01F70181917F01888329839A83FE
:101270001B821C820E94AF0389810E94AF038A8176
:101280000E94AF032596F2E001391F0729F710925B
:10129000C5031092C6031092C7031092C8031092A0
:1012A000C9031092CA031092CB031092CC03109280
:1012B000CD031092CE031092CF031092D003109260
:1012C000D1031092D2031092D3031092D403109240
:1012D000B9031092BA031092BB031092BC03109290
:1012E000BD031092BE031092BF031092C003109270
:1012F000C1031092C2031092C3031092C403AEE75D
:10130000B4E08EEA94E0FD01128E11A210A2168EB6
:10131000158E148E138E178E38968E179F07A1F791
:10132000ECE7F2E040E752E02AE632E08AE894E0B7
:1013300061917191EA0109911991AE01E901F99068
:101340009E01CF2DD0E0C8815A96CC935A97E801E0
:101350000881198191961C930E939097EB016881F7
:1013600079815E967C936E935D975C961C921E923B
:101370005B975F961C925F97EC011992CE011896CD
:10138000D2E0E838FD07A1F6109292041092910481
:101390001092900482E592E090935C0380935B034B
:1013A00087E390E0A0E0B0E0809361039093620354
:1013B000A0936303B093640388E280935E0382E7A3
:1013C00094E09093600380935F0310925A0310920D
:1013D000590310925803109257031092710481E040
:1013E0008093700410926F0461E084E10E94000514
:1013F00061E085E10E9400058091B9008E7F8093B5
:10140000B9008091B9008D7F8093B90088E4809302
:10141000B80085E48093BC008FEB91E090936E045C
:1014200080936D0480EC91E090936C0480936B0446
:101430000E948003803AC9F41092660310926503FB
:1014400060E08DE390E00E9411036EE170E080E0C7
:1014500090E00E947B0260E28FE390E00E94110323
:101460006EE170E080E090E00CC068EE73E080E038
:1014700090E00E947B020E948003803A09F044C001
:10148000DBCF0E947B020E948003803A29F06AE051
:1014900070E080E090E0F5CF62E370E080E090E003
:1014A0000E947B0260E08EE390E00E9411036AE0FC
:1014B00070E080E090E00E947B0260E087E090E0D6
:1014C0000E94110360E08FE390E00E9411036AE044
:1014D00070E080E090E00E947B0288E090E09093D2
:1014E00066038093650368E08DE390E00E9411033A
:1014F0006EE170E080E090E00E947B0264E170E0C9
:1015000080E090E00E947B021092680310926703D3
:101510001092690310926A0310926B0310926C038D
:1015200010926D0310926E0310926F03109270036D
:10153000109271031092720310927303109274034D
:10154000109275031092760310927703109278032D
:101550001092790310927A0310927B0310927C030D
:1015600010927D0310927E0310927F0310928003ED
:101570008AE097EDA3E2BCE380938D0390938E0302
:10158000A0938F03B093900380E090E0A8ECB2E4C6
:101590008093910390939203A0939303B093940349
:1015A000109281031092820310928303109284039D
:1015B000109285031092860310928703109288037D
:1015C0001092890310928A0310928B0310928C035D
:1015D000DF91CF911F910F91FF90EF90DF90CF900F
:1015E0000895789484B5826084BD84B5816084BD9B
:1015F00085B5826085BD85B5816085BD80916E00B1
:10160000816080936E0010928100809181008260E1
:10161000809381008091810081608093810080911E
:1016200080008160809380008091B100846080930D
:10163000B1008091B00081608093B00080919100F2
:1016400082608093910080919100816080939100ED
:10165000809190008160809390008091A1008260D1
:101660008093A1008091A10081608093A10080916E
:10167000A00081608093A00080912101826080930E
:1016800021018091210181608093210180912001BD
:1016900081608093200180917A00846080937A0039
:1016A00080917A00826080937A0080917A008160D4
:1016B00080937A0080917A00806880937A001092FB
:1016C000C100E091CA02F091CB0282E08083E091F8
:1016D000C602F091C7021082E091C802F091C902DF
:1016E0008FEC80831092D202E091CE02F091CF0273
:1016F00086E08083E091CC02F091CD028081806110
:101700008083E091CC02F091CD028081886080835B
:10171000E091CC02F091CD02808180688083E091DD
:10172000CC02F091CD0280818F7D808388ECF82EF1
:10173000F092D8031092D90360E08091D5030E9403
:10174000000561E08091D903811160E08091D603AA
:101750000E9400050091D803C02FD0E01091D7035C
:10176000812F0E94AF03209709F4B1C0CF3FD1056C
:1017700009F4AFC0E12FF0E0E05FFD4FE4918E2F60
:1017800090E0FC013197E231F10508F09DC0882717
:10179000EC57FF4F8F4F0C94700C84B5806884BD5C
:1017A00007BD9BC084B5806284BD08BD96C0809192
:1017B0008000806880938000D0938900C093880067
:1017C0008CC080918000806280938000D0938B00D9
:1017D000C0938A0082C080918000886080938000DE
:1017E000D0938D00C0938C0078C08091B000806849
:1017F0008093B0000093B30070C08091B00080620D
:101800008093B0000093B40068C08091900080681D
:1018100080939000D0939900C09398005EC080910F
:101820009000806280939000D0939B00C0939A00B8
:1018300054C080919000886080939000D0939D0068
:10184000C0939C004AC08091A00080688093A00053
:101850008091A0008F7B8093A000D093A900C093BB
:10186000A8003BC08091A00080628093A000D0932C
:10187000AB00C093AA0031C08091A0008860809323
:10188000A000D093AD00C093AC0027C08091200190
:10189000806880932001D0932901C09328011DC046
:1018A00080912001806280932001D0932B01C0930E
:1018B0002A0113C080912001886080932001D09379
:1018C0002D01C0932C0109C0C038D10514F460E08B
:1018D00001C061E0812F0E9400050E94840628CF8C
:1018E000EE0FFF1F881F8BBF0790F691E02D199414
:1018F000E89409C097FB3EF49095809570956195AA
:101900007F4F8F4F9F4F9923A9F0F92F96E9BB275F
:101910009395F695879577956795B795F111F8CFDB
:10192000FAF4BB0F11F460FF1BC06F5F7F4F8F4F46
:101930009F4F16C0882311F096E911C0772321F03C
:101940009EE8872F762F05C0662371F096E8862FD4
:1019500070E060E02AF09A95660F771F881FDAF72B
:10196000880F9695879597F908950E94C80C0C9456
:10197000390D0E942B0D38F00E94320D20F0952376
:1019800011F00C94220D0C94280D11240C946D0D63
:101990000E944A0D70F3959FC1F3950F50E0551FBB
:1019A000629FF001729FBB27F00DB11D639FAA27B4
:1019B000F00DB11DAA1F649F6627B00DA11D661F03
:1019C000829F2227B00DA11D621F739FB00DA11D24
:1019D000621F839FA00D611D221F749F3327A00DDE
:1019E000611D231F849F600D211D822F762F6A2F7A
:1019F00011249F5750409AF0F1F088234AF0EE0FDF
:101A0000FF1FBB1F661F771F881F91505040A9F70B
:101A10009E3F510580F00C94220D0C946D0D5F3F9C
:101A2000E4F3983ED4F3869577956795B795F79547
:101A3000E7959F5FC1F7FE2B880F911D96958795BF
:101A400097F9089597F99F6780E870E060E008953E
:101A50009FEF80EC089500240A94161617061806C6
:101A60000906089500240A941216130614060506A2
:101A70000895092E0394000C11F4882352F0BB0F33
:101A800040F4BF2B11F460FF04C06F5F7F4F8F4F96
:101A90009F4F089557FD9058440F551F59F05F3FD1
:101AA00071F04795880F97FB991F61F09F3F79F080
:101AB00087950895121613061406551FF2CF469502
:101AC000F1DF08C0161617061806991FF1CF869584
:101AD0007105610508940895E894BB276627772768
:101AE000CB0197F908950F931F93CF93DF93823023
:101AF000910510F482E090E0E091D304F091D404D9
:101B000020E030E0A0E0B0E0309719F14081518151
:101B10000281138148175907C8F08417950769F4A3
:101B2000109731F012960C93129713961C9327C0BE
:101B30000093D3041093D40422C02115310519F069
:101B40004217530718F49A01BD01EF01DF01F801B4
:101B5000DBCF21153105F9F0281B390B2430310575
:101B600080F48A819B816115710521F0FB019383CB
:101B7000828304C09093D4048093D304FE013296F0
:101B800044C0FE01E20FF31F81939193225031096B
:101B9000398328833AC02091D1043091D204232B79
:101BA00041F420910202309103023093D204209339
:101BB000D10420910002309101022115310541F438
:101BC0002DB73EB74091040250910502241B350BFE
:101BD000E091D104F091D204E217F307A0F42E1B98
:101BE0003F0B2817390778F0AC014E5F5F4F241781
:101BF000350748F04E0F5F1F5093D2044093D10435
:101C00008193919302C0E0E0F0E0CF01DF91CF91AA
:101C10001F910F910895CF93DF93009709F481C02E
:101C2000FC01329713821282A091D304B091D404A4
:101C3000109781F420813181820F931F2091D1046C
:101C40003091D2042817390751F5F093D204E0936C
:101C5000D10467C0ED0120E030E0CE17DF0740F48B
:101C60004A815B819E0141155105F1F0EA01F5CFF2
:101C7000D383C28340815181840F951FC817D90730
:101C800059F488819981840F951F029691838083EE
:101C90008A819B81938382832115310529F4F093F6
:101CA000D404E093D3043DC0E901FB83EA83499166
:101CB0005991C40FD51FEC17FD0761F48081918104
:101CC000840F951F0296E90199838883828193810D
:101CD0009B838A83E0E0F0E012968D919C911397AC
:101CE000009719F0FD01DC01F7CF8D919C911197C0
:101CF0009D012E5F3F4F820F931F2091D1043091A1
:101D0000D2042817390769F4309729F41092D404C3
:101D10001092D30402C013821282B093D204A09313
:101D2000D104DF91CF91089581E090E0F8940C9474
:101D3000A80EFB01DC014150504048F001900D928B
:101D40000020C9F701C01D9241505040E0F70895AE
:041D5000F894FFCF35
:101D54000000D504200052B85E3F0000003F0000A0
:101D6400803F00000000000080BF0000803F52B8A8
:101D74005EBF0000003F0000803F000000004C02F6
:101D84001F02A905F30117020302F4010000000079
:101D940015067E05AC056206DD05BB05CF05000012
:101DA4000000BA08E907BD06C006A4070000000049
:101DB40000000000BD06BE06BE06363738393A3B81
:101DC4001E005A009600D2000E014A01200320038F
:101DD4002003200320032003040D07030C06020B39
:081DE40005424E4F3035350079
:00000001FF
