:100000000C9456010C9487010C9487010C94870181
:100010000C9487010C9487010C9487010C94870140
:100020000C9487010C9487010C9487010C94870130
:100030000C9487010C9487010C9487010C94870120
:100040000C9487010C9487010C9487010C94870110
:100050000C9487010C9487010C9487010C94B507CC
:100060000C9487010C9429080C94FF070C948701C9
:100070000C9487010C9487010C9487010C948701E0
:100080000C9487010C9487010C9487010C948701D0
:100090000C9487010C9487010C9487010C948306BF
:1000A0000C9487010C9487010C9487010C948701B0
:1000B0000C9487010C9487010C9487010C948701A0
:1000C0000C9487010C9487010C9487010C94870190
:1000D0000C9487010C9487010C9487010C94870180
:1000E0000C9487018402870276027A027E02BE02A5
:1000F0008B028F02950299029D02A302A702AB0216
:10010000BE02B102B502B9020C947E080C949D02A5
:100110000C9425050C94B1020C9476020C948B027D
:100120000C9495020C94FF020C9445040C942B0340
:100130000C9423030C94BE020C9423040C948106AB
:100140000C9458030C9487020C9411040C940F0324
:100150000C94A7020C9437040C94A3020C94840210
:100160000C9414040C94CA040C948A010C948F020D
:100170000C947A020C947D040C9458050C9426057A
:100180000C94B9020C94AB020C9489010C94B50246
:100190000C9499020C943C060C94E6030C947E0299
:1001A0000C94000300002100240027002A002D00E9
:1001B0003000330001010000040107010A010000C2
:1001C0002200250028002B002E00310034000201FF
:1001D0000000050108010B010505050507050808D4
:1001E0000808020202020A0A0808040404040101C1
:1001F00001010101010103030303030303030407D6
:1002000007070C0C0C0C0C0C0C0C0202020206066C
:100210000606060606060B0B0B0B0B0B0B0B01025F
:100220001020200808102040102040800201020108
:1002300008040201010204081020408080402010C0
:100240000804020180040201804020100804020119
:100250000804020101020408102040800102040881
:100260001020408000000A0B02090C0D0E08070345
:100270000401000000000000000000000000000079
:10028000000000000000000000000000000000006E
:10029000121110000000000000000000000000002B
:1002A000000000000000000000007E0811241FBEB6
:1002B000CFEFD1E2DEBFCDBF00E00CBF12E0A0E087
:1002C000B2E0E4E2FBE100E00BBF02C007900D9258
:1002D000AA38B107D9F724E0AAE8B2E001C01D921C
:1002E000A73CB207E1F711E0C6E5D1E000E006C0A7
:1002F00021970109802FFE010E94580BC535D107B7
:1003000080E00807A9F70E94B00A0C94900D0C94A5
:10031000000008950895282F3091E003313208F04D
:100320004AC08091DF038111FCCF90913B0342E0F2
:100330004093DF032093DE032FEF209319031092E5
:10034000180330931703EBE1F3E0A7EFB2E020E0EE
:10035000321721F041914D932F5FFACF1092F602A0
:100360002091F602990F922B9093F6029091DD0363
:10037000913061F41092DD039091F6029093BB00EE
:100380009091BC0093FDF8CF95EC01C095EE909351
:10039000BC009091DF039230E1F3909119039F3FED
:1003A00079F080911903803241F0809119038033F4
:1003B00031F084E005C081E003C082E001C083E049
:1003C0001092E1031092E00310921A0308951F9314
:1003D000CF93DF93162FC0EFD3E09FA521E02093AA
:1003E0001A0390933B031092E1031092E003A8A933
:1003F000B9A9ED91FC9111970190F081E02D682F42
:10040000CD01199588A999A9DC01ED91FC91019084
:10041000F081E02D612F199581E00E948B0181E030
:10042000DF91CF911F9108959091DF039111FCCF3F
:1004300091E09093DF039093DE032FEF2093190355
:1004400010921803260F209317039093F6029091B1
:10045000F602880F892B8093F6028091DD038130AC
:1004600061F41092DD038091F6028093BB008091CD
:10047000BC0083FDF8CF85EC01C085EE8093BC0005
:100480008091DF038130E1F380911803861710F427
:1004900060911803A7EFB2E0E6EDF2E080E0861786
:1004A00021F09D9191938F5FFACF089590E0FC0128
:1004B000EC59FD4F4491FC01E25EFD4F2491FC019B
:1004C000E852FE4F9491992309F466C0442309F43D
:1004D00055C050E0FA013197E231F10508F04EC005
:1004E0008827EE58FF4F8F4F0C94580B8091800057
:1004F0008F7707C0809180008F7D03C0809180003E
:10050000877F809380003AC084B58F7702C084B51E
:100510008F7D84BD33C08091B0008F7703C0809100
:10052000B0008F7D8093B00029C0809190008F77BC
:1005300007C0809190008F7D03C080919000877FDD
:10054000809390001BC08091A0008F7707C080919E
:10055000A0008F7D03C08091A000877F8093A000C2
:100560000DC0809120018F7707C0809120018F7D81
:1005700003C080912001877F80932001E92FF0E064
:10058000EE0FFF1FE254FE4FA591B4918FB7F89480
:10059000EC91E22BEC938FBF089585ED8093BC0026
:1005A0008091BC0084FDFCCF1092DF030895409140
:1005B000B302262F30E0240F311D21323105DCF447
:1005C0002091DF032430C9F4FC0180E090E086171D
:1005D00058F43091B3022191DC01AD56BD4FA30F09
:1005E000B11D2C930196F3CF8091B302680F6093F5
:1005F000B30280E0089581E0089582E008950895AF
:10060000E091E3038091E203E81730F4F0E0EA526E
:10061000FD4F808190E008958FEF9FEF08959091B6
:10062000E3038091E203981750F4E92FF0E0EA52D7
:10063000FD4F208130E09F5F9093E30302C02FEFD6
:100640003FEFC90108958091E20390E02091E30318
:10065000821B91090895CF92DF92EF92FF920F9340
:100660001F93CF93DF937C01CB018A0120911A0362
:10067000222389F0EB016B01C40ED51ECC15DD05DC
:1006800069F06991D701ED91FC910190F081E02D25
:10069000C7011995F3CF642F0E94D702C801DF91DB
:1006A000CF911F910F91FF90EF90DF90CF90089521
:1006B000CF93DF931F92CDB7DEB7698320911A03E2
:1006C0002223D1F02091E003203240F021E030E0FD
:1006D000FC013383228380E090E015C08091E10328
:1006E000E82FF0E0E55EFC4F998190838F5F809367
:1006F000E1038093E00305C061E0CE0101960E9412
:10070000D70281E090E00F90DF91CF9108953FB73D
:10071000F89480918F0290919002A0919102B091F3
:10072000920226B5A89B05C02F3F19F00196A11D86
:10073000B11D3FBFBA2FA92F982F8827820F911D77
:10074000A11DB11DBC01CD0142E0660F771F881FBE
:10075000991F4A95D1F708958F929F92AF92BF92B9
:10076000CF92DF92EF92FF926B017C010E94870390
:100770004B015C01C114D104E104F104F1F00E94C9
:100780008703DC01CB0188199909AA09BB09883EB6
:100790009340A105B10570F321E0C21AD108E10828
:1007A000F10888EE880E83E0981EA11CB11CC114CC
:1007B000D104E104F10419F7DDCFFF90EF90DF9051
:1007C000CF90BF90AF909F908F900895CF92DF927F
:1007D000EF92FF920F931F93CF93DF936C017A01F7
:1007E0008B01C0E0D0E0CE15DF0581F0D8016D911E
:1007F0008D01D601ED91FC910190F081E02DC601B3
:100800001995892B11F02196EECF7E01C701DF915A
:10081000CF911F910F91FF90EF90DF90CF900895AF
:10082000089580E090E00895FC01538D448D252FBC
:1008300030E0842F90E0821B930B541710F0CF967A
:10084000089501970895FC01918D828D981761F0AC
:10085000828DDF01A80FB11D5D968C91928D9F5FF7
:100860009F73928F90E008958FEF9FEF0895FC01A2
:10087000918D828D981731F0828DE80FF11D858D55
:1008800090E008958FEF9FEF0895FC01918D228DE8
:10089000892F90E0805C9F4F821B91098F7399276D
:1008A00008958CE393E00E94450421E0892B09F42C
:1008B00020E0822F0895FC01848DDF01A80FB11D77
:1008C000A35ABF4F2C91848D90E001968F73992786
:1008D000848FA689B7892C93A089B1898C91837064
:1008E00080648C93938D848D981306C00288F3895D
:1008F000E02D80818F7D80830895EF92FF920F938A
:100900001F93CF93DF93EC0181E0888F9B8D8C8DBB
:10091000981305C0E889F989808185FD26C0F62EE7
:100920000B8D10E00F5F1F4F0F731127E02E8C8D82
:10093000E8120CC00FB607FCFACFE889F98980816C
:1009400085FFF5CFCE010E945B04F1CF8B8DFE01B8
:10095000E80FF11DE35AFF4FF0829FB7F8940B8F19
:10096000EA89FB89808180620AC09FB7F894EE898A
:10097000FF896083E889F98980818370806480833E
:100980009FBF81E090E0DF91CF911F910F91FF9089
:10099000EF900895CF93DF93EC01888D8823C9F001
:1009A000EA89FB89808185FD05C0A889B9898C9178
:1009B00086FD0FC00FB607FCF5CF808185FFF2CF13
:1009C000A889B9898C9185FFEDCFCE010E945B0487
:1009D000E7CFDF91CF91089580E090E0892B21F05F
:1009E0000E945104811125C080E090E0892B41F0E4
:1009F00080E090E0892B21F00E94000081111CC052
:100A000080E090E0892B41F080E090E0892B21F09C
:100A10000E940000811113C080E090E0892BA1F0BA
:100A200080E090E0892B81F00E94000081110AC0D3
:100A300008950E940000D8CF0E940000E1CF0E94DC
:100A40000000EACF0C940000089508950895CF9314
:100A5000DF93C0EFD3E08FA591E090931A038093CA
:100A60003B031092E1031092E00388A999A9DC01ED
:100A7000ED91FC910190F081E02D60E0199581E00D
:100A80000E948B0161E08FA50E9414021092E30383
:100A90008093E20388A999A9DC01ED91FC9102847D
:100AA000F385E02D1995DF91CF9108950E947C0D7B
:100AB0008F929F92AF92BF92CF92DF92EF92FF926E
:100AC0000F931F93CF93DF93CDB7DEB762970FB627
:100AD000F894DEBF0FBECDBF6C018B0184E2DB0159
:100AE0001D928A95E9F784E290E0A0E0B0E0FB0176
:100AF00080839183A283B383F60186819781A08549
:100B0000B185FB0184839583A683B78383E090E05E
:100B1000A0E0B0E080879187A287B3872FB7F894D1
:100B200080918B0290918C02A0918D02B0918E02E7
:100B30002FBF808B918BA28BB38BFE0131968CE003
:100B4000DF011D928A95E9F77E01BDE0EB0EF11CF5
:100B500086E0F70111928A95E9F7D60113968C91F8
:100B6000139791E090931A0380933B031092E10353
:100B70001092E00314968D919C911597DC01ED91F4
:100B8000FC910190F081E02D6AE1199581E00E94CD
:100B90008B0166E0F60183810E9414021092E30348
:100BA0008093E2035E01F3E1AF0EB11CD60114960F
:100BB0008D919C911597DC01ED91FC910284F38558
:100BC000E02D1995F70181937F01EA15FB0571F777
:100BD0006D857E85072E000C880B990B0E94620B99
:100BE00020E030E040E85DE30E949D0B4B015C019A
:100BF0006F857889072E000C880B990B0E94620B79
:100C000020E030E040E85DE30E949D0B6B017C0139
:100C100069897A89072E000C880B990B0E94620B58
:100C200020E030E040E85DE30E949D0BD80154963F
:100C30008D929D92AD92BC925797F801C08ED18E45
:100C4000E28EF38E5C966D937D938D939C935F976C
:100C500081E062960FB6F894DEBF0FBECDBFDF9184
:100C6000CF911F910F91FF90EF90DF90CF90BF90A9
:100C7000AF909F908F9008950F931F93CF93DF9322
:100C80008C01EB0188E2FB0111928A95E9F74BE0B8
:100C900050E063E872E0CE010E94810D1B8681E086
:100CA00090E0A0E0B0E08C879D87AE87BF87F80119
:100CB00086819781A085B185888B998BAA8BBB8B08
:100CC00083E090E0A0E0B0E08C8B9D8BAE8BBF8B7F
:100CD0001CA21DA21EA21FA2188E198E1A8E1B8E78
:100CE0001C8E1D8E1E8E1F8E8AE097EDA3E2BCE344
:100CF00088A399A3AAA3BBA3DF91CF911F910F91C2
:100D000008950C94F30C1F920F920FB60F921124BA
:100D10000BB60F922F933F934F935F936F937F93F5
:100D20008F939F93AF93BF93EF93FF938091B900FD
:100D3000887F803609F49CC068F5883209F45BC06E
:100D400090F4803109F454C038F4882309F4F6C0D3
:100D5000883009F44DC0F6C0883109F44CC08032A7
:100D600009F45DC0EFC0803409F468C048F48033F2
:100D700009F455C0883309F0E5C080931903D8C041
:100D8000803509F44FC0883509F45DC0883409F016
:100D9000D9C0D6C0883909F4C7C0A8F4883709F487
:100DA00067C038F4883609F463C0803709F460C03E
:100DB000C9C0883809F4B8C0803909F45FC08038E8
:100DC00009F0C0C05BC0803B09F486C038F4803AAB
:100DD00009F466C0883A09F47FC0B4C0803C09F4C5
:100DE000A7C0883C09F4A4C0883B09F48AC0AAC003
:100DF0008091F60210C09091180380911703981704
:100E000070F5E091180381E08E0F80931803F0E0F5
:100E1000E950FD4F80818093BB0085EC86C08093B4
:100E200019038EC0E091180381E08E0F80931803A0
:100E30008091BB00F0E0E950FD4F80839091180352
:100E4000809117036EC0E091180381E08E0F8093AC
:100E500018038091BB00F0E0E950FD4F8083809142
:100E6000DE0381116DC081E08093DD0384EA61C0FF
:100E700083E08093DF031092D502CFCF8091D5021B
:100E8000803208F051C0E091D50281E08E0F80934E
:100E9000D5028091BB00F0E0EB54FD4F8083BDCFC5
:100EA00085EC8093BC001092DF038091D5028032E4
:100EB00030F4E091D502F0E0EB54FD4F10826091E8
:100EC000D50270E0E091D903F091DA0385EB92E06E
:100ED00019951092D50236C084E08093DF031092FA
:100EE000B4021092B302E091DB03F091DC03199598
:100EF0008091B302811105C081E08093B30210920A
:100F00009302E091B40281E08E0F8093B402F0E08E
:100F1000ED56FD4F80818093BB009091B40280918B
:100F2000B302981708F479CF85E88093BC000AC013
:100F300085EC8093BC001092DF0304C0109219036B
:100F40000E94CD02FF91EF91BF91AF919F918F9140
:100F50007F916F915F914F913F912F910F900BBEB9
:100F60000F900FBE0F901F9018951F920F920FB603
:100F70000F9211242F933F938F939F93AF93BF931F
:100F800080918B0290918C02A0918D02B0918E0283
:100F900030918A0223E0230F2D3720F40196A11D02
:100FA000B11D05C026E8230F0296A11DB11D209397
:100FB0008A0280938B0290938C02A0938D02B0934F
:100FC0008E0280918F0290919002A0919102B09137
:100FD00092020196A11DB11D80938F029093900201
:100FE000A0939102B0939202BF91AF919F918F9184
:100FF0003F912F910F900FBE0F901F9018951F9249
:101000000F920FB60F9211240BB60F922F933F93AE
:101010004F935F936F937F938F939F93AF93BF9300
:10102000EF93FF938CE393E00E945B04FF91EF91B9
:10103000BF91AF919F918F917F916F915F914F91F0
:101040003F912F910F900BBE0F900FBE0F901F90EE
:1010500018951F920F920FB60F9211240BB60F9294
:101060002F938F939F93EF93FF93E0914C03F09115
:101070004D038081E0915203F091530382FD12C031
:101080009081809155038F5F8F7320915603821753
:1010900051F0E0915503F0E0E45CFC4F958F8093B4
:1010A000550301C08081FF91EF919F918F912F9106
:1010B0000F900BBE0F900FBE0F901F90189590E0F1
:1010C000FC01E25EFD4F2491FC01E852FE4F849149
:1010D000882399F090E0880F991FFC01EC55FE4F92
:1010E000A591B491FC01E254FE4F859194918FB784
:1010F000F894EC91E22BEC938FBF0895CF92DF929E
:10110000EF92FF920F931F93CF93DF931092E70319
:101110001092E60388EE93E0A0E0B0E08093E8034D
:101120009093E903A093EA03B093EB032EE232E03D
:101130003093E5032093E40310923F0310923E03A3
:101140008093400390934103A0934203B0934303E1
:1011500080E492E090933D0380933C0385EC90E023
:10116000909349038093480384EC90E090934B0361
:1011700080934A0380EC90E090934D0380934C035E
:1011800081EC90E090934F0380934E0382EC90E0CB
:10119000909351038093500386EC90E09093530317
:1011A00080935203109255031092560310925703E6
:1011B0001092580384E2E6E0F2E0A3E8B4E0019084
:1011C0000D928A95E1F700E812E08DE7C82E82E0E3
:1011D000D82E9AE7E92E92E0F92EC4E7D4E0F80180
:1011E00091918F01F60121916F01F70181917F01AA
:1011F000888329839A831B821C820E945F088981CD
:101200000E945F088A810E945F082596F2E00338F9
:101210001F0729F71092B3041092B4041092B5047A
:101220001092B6041092B7041092B8041092B90448
:101230001092BA041092BB041092BC041092BD0428
:101240001092BE041092BF041092C0041092C10408
:101250001092C2041092A7041092A8041092A9043C
:101260001092AA041092AB041092AC041092AD0438
:101270001092AE041092AF041092B0041092B10418
:101280001092B204AAE2B4E08AE594E0FD01108273
:101290001782168214821382128211821582389666
:1012A0008E179F07A1F7EEE6F2E042E652E02CE54A
:1012B00032E086E694E061917191EA010991199119
:1012C000AE01E901F9909E01CF2DD0E0C881CC9309
:1012D000E8010881198117961C930E931697EB016C
:1012E0006881798114967C936E93139712961C9261
:1012F0001E92119715961C921597EC011992CE012A
:101300001896D2E0EA37FD07B1F610926E041092FB
:101310006D0410926C0482E592E090931D0480931A
:101320001C0487E390E0A0E0B0E080932204909357
:101330002304A0932404B093250488E280931F041F
:1013400084EE93E090932104809320041092E303B1
:101350001092E2031092E1031092E0031092DF0377
:1013600081E08093DE031092DD0384E10E94560247
:1013700085E10E9456028091B9008E7F8093B9006A
:101380008091B9008D7F8093B90088E48093B80084
:1013900085E48093BC0089E891E09093DC0380931E
:1013A000DB038AE891E09093DA038093D9030E94EB
:1013B0002705803AC9F4109227041092260460E0B1
:1013C0008DE390E00E94E7016EE170E080E090E044
:1013D0000E94AC0360E28FE390E00E94E7016EE1BF
:1013E00070E080E090E00CC068EE73E080E090E098
:1013F0000E94AC030E942705803A09F044C0DBCF6D
:101400000E94AC030E942705803A29F06AE070E050
:1014100080E090E0F5CF62E370E080E090E00E9431
:10142000AC0360E08EE390E00E94E7016AE070E0C8
:1014300080E090E00E94AC0360E087E090E00E94D2
:10144000E70160E08FE390E00E94E7016AE070E06E
:1014500080E090E00E94AC0388E090E09093270445
:101460008093260468E08DE390E00E94E7016EE13E
:1014700070E080E090E00E94AC0364E170E080E006
:1014800090E00E94AC03109229041092280410925C
:10149000F0031092F1031092F2031092F3031092F2
:1014A000F4031092F5031092F6031092F7031092D2
:1014B000F8031092F9031092FA031092FB031092B2
:1014C000FC031092FD031092FE031092FF03109292
:1014D000000410920104109202041092030410926E
:1014E00004041092050410920604109207048AE086
:1014F00097EDA3E2BCE38093140490931504A093AA
:101500001604B093170480E090E0A8ECB2E4809356
:10151000180490931904A0931A04B0931B0410921A
:1015200008041092090410920A0410920B041092FD
:101530000C0410920D0410920E0410920F041092DD
:101540001004109211041092120410921304DF91EF
:10155000CF911F910F91FF90EF90DF90CF90089562
:10156000789484B5826084BD84B5816084BD85B57E
:10157000826085BD85B5816085BD80916E0081608A
:1015800080936E0010928100809181008260809330
:101590008100809181008160809381008091800032
:1015A0008160809380008091B10084608093B1005D
:1015B0008091B00081608093B00080919100826042
:1015C000809391008091910081608093910080913F
:1015D00090008160809390008091A1008260809350
:1015E000A1008091A10081608093A1008091A00062
:1015F00081608093A000809121018260809321010D
:10160000809121018160809321018091200181607E
:101610008093200180917A00846080937A00809189
:101620007A00826080937A0080917A008160809352
:101630007A0080917A00806880937A001092C100CD
:10164000E0914C03F0914D0382E08083E0914803E8
:10165000F09149031082E0914A03F0914B038FEC23
:10166000808310925403E0915003F091510386E07F
:101670008083E0914E03F0914F03808180618083ED
:10168000E0914E03F0914F03808188608083E09168
:101690004E03F0914F03808180688083E0914E0378
:1016A000F0914F0380818F7D80830E94EC04FDCFF9
:1016B000EE0FFF1F881F8BBF0790F691E02D199446
:1016C000E89409C097FB3EF49095809570956195DC
:1016D0007F4F8F4F9F4F9923A9F0F92F96E9BB2792
:1016E0009395F695879577956795B795F111F8CF0E
:1016F000FAF4BB0F11F460FF1BC06F5F7F4F8F4F79
:101700009F4F16C0882311F096E911C0772321F06E
:101710009EE8872F762F05C0662371F096E8862F06
:1017200070E060E02AF09A95660F771F881FDAF75D
:10173000880F9695879597F908950E94B00B0C94A1
:10174000210C0E94130C38F00E941A0C20F09523F3
:1017500011F00C940A0C0C94100C11240C94550CE0
:101760000E94320C70F3959FC1F3950F50E0551F06
:10177000629FF001729FBB27F00DB11D639FAA27E6
:10178000F00DB11DAA1F649F6627B00DA11D661F35
:10179000829F2227B00DA11D621F739FB00DA11D56
:1017A000621F839FA00D611D221F749F3327A00D10
:1017B000611D231F849F600D211D822F762F6A2FAC
:1017C00011249F5750409AF0F1F088234AF0EE0F11
:1017D000FF1FBB1F661F771F881F91505040A9F73E
:1017E0009E3F510580F00C940A0C0C94550C5F3F01
:1017F000E4F3983ED4F3869577956795B795F7957A
:10180000E7959F5FC1F7FE2B880F911D96958795F1
:1018100097F9089597F99F6780E870E060E0089570
:101820009FEF80EC089500240A94161617061806F8
:101830000906089500240A941216130614060506D4
:101840000895092E0394000C11F4882352F0BB0F65
:1018500040F4BF2B11F460FF04C06F5F7F4F8F4FC8
:101860009F4F089557FD9058440F551F59F05F3F03
:1018700071F04795880F97FB991F61F09F3F79F0B2
:1018800087950895121613061406551FF2CF469534
:10189000F1DF08C0161617061806991FF1CF8695B6
:1018A0007105610508940895E894BB27662777279A
:1018B000CB0197F908950F931F93CF93DF93823055
:1018C000910510F482E090E0E091C504F091C60427
:1018D00020E030E0A0E0B0E0309719F14081518184
:1018E0000281138148175907C8F08417950769F4D6
:1018F000109731F012960C93129713961C9327C0F1
:101900000093C5041093C60422C02115310519F0B7
:101910004217530718F49A01BD01EF01DF01F801E6
:10192000DBCF21153105F9F0281B390B24303105A7
:1019300080F48A819B816115710521F0FB019383FD
:10194000828304C09093C6048093C504FE0132963E
:1019500044C0FE01E20FF31F81939193225031099D
:10196000398328833AC02091C3043091C404232BC7
:1019700041F420910202309103023093C404209379
:10198000C30420910002309101022115310541F478
:101990002DB73EB74091040250910502241B350B30
:1019A000E091C304F091C404E217F307A0F42E1BE6
:1019B0003F0B2817390778F0AC014E5F5F4F2417B3
:1019C000350748F04E0F5F1F5093C4044093C30483
:1019D0008193919302C0E0E0F0E0CF01DF91CF91DD
:1019E0001F910F910895CF93DF93009709F481C061
:1019F000FC01329713821282A091C504B091C604F3
:101A0000109781F420813181820F931F2091C304AC
:101A10003091C4042817390751F5F093C404E093BA
:101A2000C30467C0ED0120E030E0CE17DF0740F4CB
:101A30004A815B819E0141155105F1F0EA01F5CF24
:101A4000D383C28340815181840F951FC817D90762
:101A500059F488819981840F951F02969183808320
:101A60008A819B81938382832115310529F4F09328
:101A7000C604E093C5043DC0E901FB83EA834991B4
:101A80005991C40FD51FEC17FD0761F48081918136
:101A9000840F951F0296E90199838883828193813F
:101AA0009B838A83E0E0F0E012968D919C911397DE
:101AB000009719F0FD01DC01F7CF8D919C911197F2
:101AC0009D012E5F3F4F820F931F2091C3043091E1
:101AD000C4042817390769F4309729F41092C60412
:101AE0001092C50402C013821282B093C404A09362
:101AF000C304DF91CF91089581E090E0F8940C94B5
:101B0000900DFB01DC014150504048F001900D92D6
:101B10000020C9F701C01D9241505040E0F70895E0
:041B2000F894FFCF67
:101B24000000C704200052B85E3F0000003F0000E0
:101B3400803F00000000000080BF0000803F52B8DA
:101B44005EBF0000003F0000803F0000000058031B
:101B54002B031104FF0223030F0300030000000002
:101B64007D04E6031404CA04450423043704000076
:101B7400000025058106260558053C063637383908
:101B84003A3B1E005A009600D2000E014A0120037F
:101B940020032003200320032003040D07030C0665
:0A1BA400020B05424E4F30353500AC
:00000001FF
